{
  "_format": "hh-sol-artifact-1",
  "contractName": "Fanbuidl",
  "sourceName": "contracts/Fanbuidl.sol",
  "abi": [
    {
      "inputs": [],
      "stateMutability": "nonpayable",
      "type": "constructor"
    },
    {
      "anonymous": false,
      "inputs": [
        {
          "indexed": false,
          "internalType": "address",
          "name": "",
          "type": "address"
        },
        {
          "indexed": false,
          "internalType": "string",
          "name": "",
          "type": "string"
        }
      ],
      "name": "creatorActivated",
      "type": "event"
    },
    {
      "anonymous": false,
      "inputs": [
        {
          "indexed": false,
          "internalType": "address",
          "name": "",
          "type": "address"
        },
        {
          "indexed": false,
          "internalType": "string",
          "name": "",
          "type": "string"
        }
      ],
      "name": "creatorCreated",
      "type": "event"
    },
    {
      "anonymous": false,
      "inputs": [
        {
          "indexed": false,
          "internalType": "address",
          "name": "",
          "type": "address"
        },
        {
          "indexed": false,
          "internalType": "string",
          "name": "",
          "type": "string"
        }
      ],
      "name": "creatorDeactivated",
      "type": "event"
    },
    {
      "anonymous": false,
      "inputs": [
        {
          "indexed": false,
          "internalType": "address",
          "name": "",
          "type": "address"
        },
        {
          "indexed": false,
          "internalType": "string",
          "name": "",
          "type": "string"
        }
      ],
      "name": "creatorUpdated",
      "type": "event"
    },
    {
      "anonymous": false,
      "inputs": [
        {
          "indexed": false,
          "internalType": "address",
          "name": "",
          "type": "address"
        },
        {
          "indexed": false,
          "internalType": "uint256",
          "name": "",
          "type": "uint256"
        }
      ],
      "name": "feeCollected",
      "type": "event"
    },
    {
      "anonymous": false,
      "inputs": [
        {
          "indexed": false,
          "internalType": "address",
          "name": "",
          "type": "address"
        },
        {
          "indexed": false,
          "internalType": "uint256",
          "name": "",
          "type": "uint256"
        }
      ],
      "name": "fundsReceived",
      "type": "event"
    },
    {
      "anonymous": false,
      "inputs": [
        {
          "indexed": false,
          "internalType": "address",
          "name": "",
          "type": "address"
        },
        {
          "indexed": false,
          "internalType": "address",
          "name": "",
          "type": "address"
        },
        {
          "indexed": false,
          "internalType": "uint256",
          "name": "",
          "type": "uint256"
        },
        {
          "indexed": false,
          "internalType": "uint256",
          "name": "",
          "type": "uint256"
        },
        {
          "indexed": false,
          "internalType": "uint256",
          "name": "",
          "type": "uint256"
        }
      ],
      "name": "gotSubscribed",
      "type": "event"
    },
    {
      "stateMutability": "payable",
      "type": "fallback"
    },
    {
      "inputs": [],
      "name": "activateCreator",
      "outputs": [],
      "stateMutability": "nonpayable",
      "type": "function"
    },
    {
      "inputs": [],
      "name": "collectedFee",
      "outputs": [
        {
          "internalType": "uint256",
          "name": "",
          "type": "uint256"
        }
      ],
      "stateMutability": "view",
      "type": "function"
    },
    {
      "inputs": [
        {
          "internalType": "string",
          "name": "name",
          "type": "string"
        },
        {
          "internalType": "string",
          "name": "desc",
          "type": "string"
        },
        {
          "internalType": "uint256",
          "name": "subdays",
          "type": "uint256"
        },
        {
          "internalType": "uint256",
          "name": "fee",
          "type": "uint256"
        }
      ],
      "name": "createCreator",
      "outputs": [],
      "stateMutability": "nonpayable",
      "type": "function"
    },
    {
      "inputs": [],
      "name": "creatorFee",
      "outputs": [
        {
          "internalType": "uint8",
          "name": "",
          "type": "uint8"
        }
      ],
      "stateMutability": "view",
      "type": "function"
    },
    {
      "inputs": [
        {
          "internalType": "address",
          "name": "",
          "type": "address"
        }
      ],
      "name": "creatorList",
      "outputs": [
        {
          "internalType": "string",
          "name": "accountName",
          "type": "string"
        },
        {
          "internalType": "string",
          "name": "desription",
          "type": "string"
        },
        {
          "internalType": "uint256",
          "name": "balance",
          "type": "uint256"
        },
        {
          "internalType": "uint256",
          "name": "subDays",
          "type": "uint256"
        },
        {
          "internalType": "uint256",
          "name": "subFee",
          "type": "uint256"
        },
        {
          "internalType": "bool",
          "name": "active",
          "type": "bool"
        },
        {
          "internalType": "bool",
          "name": "check",
          "type": "bool"
        }
      ],
      "stateMutability": "view",
      "type": "function"
    },
    {
      "inputs": [
        {
          "internalType": "uint256",
          "name": "",
          "type": "uint256"
        }
      ],
      "name": "creators",
      "outputs": [
        {
          "internalType": "address",
          "name": "",
          "type": "address"
        }
      ],
      "stateMutability": "view",
      "type": "function"
    },
    {
      "inputs": [],
      "name": "deactivateCreator",
      "outputs": [],
      "stateMutability": "nonpayable",
      "type": "function"
    },
    {
      "inputs": [
        {
          "internalType": "address",
          "name": "subscriber",
          "type": "address"
        }
      ],
      "name": "getActiveSubscriptionCount",
      "outputs": [
        {
          "internalType": "uint256",
          "name": "",
          "type": "uint256"
        }
      ],
      "stateMutability": "view",
      "type": "function"
    },
    {
      "inputs": [
        {
          "internalType": "address",
          "name": "subscriber",
          "type": "address"
        }
      ],
      "name": "getActiveSubscriptions",
      "outputs": [
        {
          "components": [
            {
              "internalType": "address",
              "name": "creator",
              "type": "address"
            },
            {
              "internalType": "uint256",
              "name": "startDate",
              "type": "uint256"
            },
            {
              "internalType": "uint256",
              "name": "endDate",
              "type": "uint256"
            }
          ],
          "internalType": "struct Fanbuidl.Subcscription[]",
          "name": "",
          "type": "tuple[]"
        }
      ],
      "stateMutability": "view",
      "type": "function"
    },
    {
      "inputs": [],
      "name": "getBalance",
      "outputs": [
        {
          "internalType": "uint256",
          "name": "",
          "type": "uint256"
        }
      ],
      "stateMutability": "view",
      "type": "function"
    },
    {
      "inputs": [
        {
          "internalType": "address",
          "name": "ad",
          "type": "address"
        }
      ],
      "name": "getCreator",
      "outputs": [
        {
          "components": [
            {
              "internalType": "string",
              "name": "accountName",
              "type": "string"
            },
            {
              "internalType": "string",
              "name": "desription",
              "type": "string"
            },
            {
              "internalType": "uint256",
              "name": "balance",
              "type": "uint256"
            },
            {
              "internalType": "uint256",
              "name": "subDays",
              "type": "uint256"
            },
            {
              "internalType": "uint256",
              "name": "subFee",
              "type": "uint256"
            },
            {
              "internalType": "bool",
              "name": "active",
              "type": "bool"
            },
            {
              "internalType": "bool",
              "name": "check",
              "type": "bool"
            }
          ],
          "internalType": "struct Fanbuidl.Creator",
          "name": "cr",
          "type": "tuple"
        }
      ],
      "stateMutability": "view",
      "type": "function"
    },
    {
      "inputs": [
        {
          "internalType": "address",
          "name": "subscriber",
          "type": "address"
        }
      ],
      "name": "getExpiredSubscriptions",
      "outputs": [
        {
          "components": [
            {
              "internalType": "address",
              "name": "creator",
              "type": "address"
            },
            {
              "internalType": "uint256",
              "name": "startDate",
              "type": "uint256"
            },
            {
              "internalType": "uint256",
              "name": "endDate",
              "type": "uint256"
            }
          ],
          "internalType": "struct Fanbuidl.Subcscription[]",
          "name": "",
          "type": "tuple[]"
        }
      ],
      "stateMutability": "view",
      "type": "function"
    },
    {
      "inputs": [
        {
          "internalType": "address",
          "name": "subscriber",
          "type": "address"
        }
      ],
      "name": "getExpiringSubscriptionCount",
      "outputs": [
        {
          "internalType": "uint256",
          "name": "",
          "type": "uint256"
        }
      ],
      "stateMutability": "view",
      "type": "function"
    },
    {
      "inputs": [],
      "name": "getOwner",
      "outputs": [
        {
          "internalType": "address",
          "name": "",
          "type": "address"
        }
      ],
      "stateMutability": "view",
      "type": "function"
    },
    {
      "inputs": [],
      "name": "owner",
      "outputs": [
        {
          "internalType": "address",
          "name": "",
          "type": "address"
        }
      ],
      "stateMutability": "view",
      "type": "function"
    },
    {
      "inputs": [
        {
          "internalType": "uint8",
          "name": "_fee",
          "type": "uint8"
        }
      ],
      "name": "setCreatorFee",
      "outputs": [],
      "stateMutability": "nonpayable",
      "type": "function"
    },
    {
      "inputs": [
        {
          "internalType": "address",
          "name": "",
          "type": "address"
        },
        {
          "internalType": "uint256",
          "name": "",
          "type": "uint256"
        }
      ],
      "name": "subList",
      "outputs": [
        {
          "internalType": "uint256",
          "name": "",
          "type": "uint256"
        }
      ],
      "stateMutability": "view",
      "type": "function"
    },
    {
      "inputs": [
        {
          "internalType": "address",
          "name": "creator",
          "type": "address"
        }
      ],
      "name": "subscribeMe",
      "outputs": [],
      "stateMutability": "payable",
      "type": "function"
    },
    {
      "inputs": [
        {
          "internalType": "uint256",
          "name": "",
          "type": "uint256"
        }
      ],
      "name": "subscriptions",
      "outputs": [
        {
          "internalType": "address",
          "name": "creator",
          "type": "address"
        },
        {
          "internalType": "uint256",
          "name": "startDate",
          "type": "uint256"
        },
        {
          "internalType": "uint256",
          "name": "endDate",
          "type": "uint256"
        }
      ],
      "stateMutability": "view",
      "type": "function"
    },
    {
      "inputs": [
        {
          "internalType": "string",
          "name": "_name",
          "type": "string"
        },
        {
          "internalType": "string",
          "name": "_desc",
          "type": "string"
        },
        {
          "internalType": "uint256",
          "name": "subdays",
          "type": "uint256"
        },
        {
          "internalType": "int256",
          "name": "_subFee",
          "type": "int256"
        }
      ],
      "name": "updateCreator",
      "outputs": [],
      "stateMutability": "nonpayable",
      "type": "function"
    },
    {
      "inputs": [
        {
          "internalType": "uint256",
          "name": "_amount",
          "type": "uint256"
        }
      ],
      "name": "withdrawFunds",
      "outputs": [],
      "stateMutability": "payable",
      "type": "function"
    },
    {
      "inputs": [],
      "name": "withdrawLock",
      "outputs": [
        {
          "internalType": "bool",
          "name": "",
          "type": "bool"
        }
      ],
      "stateMutability": "view",
      "type": "function"
    },
    {
      "stateMutability": "payable",
      "type": "receive"
    }
  ],
  "bytecode": "0x60a060405234801561001057600080fd5b503373ffffffffffffffffffffffffffffffffffffffff1660808173ffffffffffffffffffffffffffffffffffffffff1660601b81525050600a6000806101000a81548160ff021916908360ff16021790555060805160601c61407661009d6000396000818161090401528181610a1101528181610d3c015281816116ad015261192901526140766000f3fe6080604052600436106101395760003560e01c80635dff3a03116100ab578063c485def41161006f578063c485def414610488578063c70eba2a1461049f578063cd53d08e146104dc578063cdb447fe14610519578063e811f50a14610535578063e88958dc1461056057610179565b80635dff3a031461037b578063893d20e8146103b857806389932d6a146103e35780638da5cb5b14610420578063a02103091461044b57610179565b80632370b8a7116100fd5780632370b8a7146102455780632454c8d71461026e5780632d5bbf60146102ab57806335b25d34146102ea578063448956a6146103135780635c388ca61461035057610179565b8063115b15701461017b57806312065fe0146101be5780631421b7d2146101e9578063155dd5ee1461020057806320440a941461021c57610179565b36610179577f445ab35117cf4b171680957d35f1a089ded7f4608bdef1797b266df9d930f28e333460405161016f9291906134a7565b60405180910390a1005b005b34801561018757600080fd5b506101a2600480360381019061019d9190612c0d565b61058b565b6040516101b59796959493929190613544565b60405180910390f35b3480156101ca57600080fd5b506101d36106f7565b6040516101e09190613803565b60405180910390f35b3480156101f557600080fd5b506101fe6106ff565b005b61021a60048036038101906102159190612d98565b610902565b005b34801561022857600080fd5b50610243600480360381019061023e9190612d05565b610aad565b005b34801561025157600080fd5b5061026c60048036038101906102679190612dc1565b610d3a565b005b34801561027a57600080fd5b5061029560048036038101906102909190612c0d565b610e4b565b6040516102a29190613803565b60405180910390f35b3480156102b757600080fd5b506102d260048036038101906102cd9190612d98565b61100a565b6040516102e1939291906134d0565b60405180910390f35b3480156102f657600080fd5b50610311600480360381019061030c9190612c72565b611064565b005b34801561031f57600080fd5b5061033a60048036038101906103359190612c36565b611619565b6040516103479190613803565b60405180910390f35b34801561035c57600080fd5b5061036561164a565b6040516103729190613529565b60405180910390f35b34801561038757600080fd5b506103a2600480360381019061039d9190612c0d565b61165d565b6040516103af9190613803565b60405180910390f35b3480156103c457600080fd5b506103cd6116a9565b6040516103da9190613409565b60405180910390f35b3480156103ef57600080fd5b5061040a60048036038101906104059190612c0d565b6116d1565b6040516104179190613507565b60405180910390f35b34801561042c57600080fd5b50610435611927565b6040516104429190613409565b60405180910390f35b34801561045757600080fd5b50610472600480360381019061046d9190612c0d565b61194b565b60405161047f91906137e1565b60405180910390f35b34801561049457600080fd5b5061049d611bb2565b005b3480156104ab57600080fd5b506104c660048036038101906104c19190612c0d565b611db5565b6040516104d39190613507565b60405180910390f35b3480156104e857600080fd5b5061050360048036038101906104fe9190612d98565b61200b565b6040516105109190613409565b60405180910390f35b610533600480360381019061052e9190612c0d565b61204a565b005b34801561054157600080fd5b5061054a612a1f565b6040516105579190613803565b60405180910390f35b34801561056c57600080fd5b50610575612a25565b604051610582919061381e565b60405180910390f35b60046020528060005260406000206000915090508060000180546105ae90613acb565b80601f01602080910402602001604051908101604052809291908181526020018280546105da90613acb565b80156106275780601f106105fc57610100808354040283529160200191610627565b820191906000526020600020905b81548152906001019060200180831161060a57829003601f168201915b50505050509080600101805461063c90613acb565b80601f016020809104026020016040519081016040528092919081815260200182805461066890613acb565b80156106b55780601f1061068a576101008083540402835291602001916106b5565b820191906000526020600020905b81548152906001019060200180831161069857829003601f168201915b5050505050908060020154908060030154908060040154908060050160009054906101000a900460ff16908060050160019054906101000a900460ff16905087565b600047905090565b60011515600460003373ffffffffffffffffffffffffffffffffffffffff1673ffffffffffffffffffffffffffffffffffffffff16815260200190815260200160002060050160019054906101000a900460ff16151514610795576040517f08c379a000000000000000000000000000000000000000000000000000000000815260040161078c906135c1565b60405180910390fd5b60011515600460003373ffffffffffffffffffffffffffffffffffffffff1673ffffffffffffffffffffffffffffffffffffffff16815260200190815260200160002060050160009054906101000a900460ff1615151461082b576040517f08c379a0000000000000000000000000000000000000000000000000000000008152600401610822906135e1565b60405180910390fd5b6000600460003373ffffffffffffffffffffffffffffffffffffffff1673ffffffffffffffffffffffffffffffffffffffff16815260200190815260200160002060050160006101000a81548160ff0219169083151502179055507fbb3ee8ebf1986e1d606f357d66cf35186b8d67b737fbdf816befea32a3fd462f33600460003373ffffffffffffffffffffffffffffffffffffffff1673ffffffffffffffffffffffffffffffffffffffff1681526020019081526020016000206000016040516108f8929190613477565b60405180910390a1565b7f000000000000000000000000000000000000000000000000000000000000000073ffffffffffffffffffffffffffffffffffffffff163373ffffffffffffffffffffffffffffffffffffffff161461095a57600080fd5b600154811061099e576040517f08c379a000000000000000000000000000000000000000000000000000000000815260040161099590613681565b60405180910390fd5b60001515600260009054906101000a900460ff161515146109f4576040517f08c379a00000000000000000000000000000000000000000000000000000000081526004016109eb906137c1565b60405180910390fd5b6001600260006101000a81548160ff0219169083151502179055507f000000000000000000000000000000000000000000000000000000000000000073ffffffffffffffffffffffffffffffffffffffff166108fc829081150290604051600060405180830381858888f19350505050158015610a75573d6000803e3d6000fd5b508060016000828254610a8891906139f6565b925050819055506000600260006101000a81548160ff02191690831515021790555050565b60001515600460003373ffffffffffffffffffffffffffffffffffffffff1673ffffffffffffffffffffffffffffffffffffffff16815260200190815260200160002060050160019054906101000a900460ff16151514610b43576040517f08c379a0000000000000000000000000000000000000000000000000000000008152600401610b3a90613641565b60405180910390fd5b6003339080600181540180825580915050600190039060005260206000200160009091909190916101000a81548173ffffffffffffffffffffffffffffffffffffffff021916908373ffffffffffffffffffffffffffffffffffffffff1602179055506040518060e001604052808581526020018481526020016000815260200183815260200182815260200160011515815260200160011515815250600460003373ffffffffffffffffffffffffffffffffffffffff1673ffffffffffffffffffffffffffffffffffffffff1681526020019081526020016000206000820151816000019080519060200190610c3b929190612a36565b506020820151816001019080519060200190610c58929190612a36565b5060408201518160020155606082015181600301556080820151816004015560a08201518160050160006101000a81548160ff02191690831515021790555060c08201518160050160016101000a81548160ff0219169083151502179055509050507fbe655ea337469721a58ab6c884d1c0a7c4223c93ae3deea43234f5b36aacd55633600460003373ffffffffffffffffffffffffffffffffffffffff1673ffffffffffffffffffffffffffffffffffffffff168152602001908152602001600020600001604051610d2c929190613477565b60405180910390a150505050565b7f000000000000000000000000000000000000000000000000000000000000000073ffffffffffffffffffffffffffffffffffffffff163373ffffffffffffffffffffffffffffffffffffffff1614610d9257600080fd5b8060ff1660008054906101000a900460ff1660ff161415610de8576040517f08c379a0000000000000000000000000000000000000000000000000000000008152600401610ddf906136c1565b60405180910390fd5b60328160ff1610610e2e576040517f08c379a0000000000000000000000000000000000000000000000000000000008152600401610e25906136e1565b60405180910390fd5b806000806101000a81548160ff021916908360ff16021790555050565b600080600660008473ffffffffffffffffffffffffffffffffffffffff1673ffffffffffffffffffffffffffffffffffffffff16815260200190815260200160002090506000805b8280549050811015610fff57426005848381548110610edb577f4e487b7100000000000000000000000000000000000000000000000000000000600052603260045260246000fd5b906000526020600020015481548110610f1d577f4e487b7100000000000000000000000000000000000000000000000000000000600052603260045260246000fd5b906000526020600020906003020160020154118015610fd7575062093a8042610f469190613915565b6005848381548110610f81577f4e487b7100000000000000000000000000000000000000000000000000000000600052603260045260246000fd5b906000526020600020015481548110610fc3577f4e487b7100000000000000000000000000000000000000000000000000000000600052603260045260246000fd5b906000526020600020906003020160020154105b15610fec57600182610fe99190613915565b91505b8080610ff790613b2e565b915050610e93565b508092505050919050565b6005818154811061101a57600080fd5b90600052602060002090600302016000915090508060000160009054906101000a900473ffffffffffffffffffffffffffffffffffffffff16908060010154908060020154905083565b60011515600460003373ffffffffffffffffffffffffffffffffffffffff1673ffffffffffffffffffffffffffffffffffffffff16815260200190815260200160002060050160019054906101000a900460ff161515146110fa576040517f08c379a00000000000000000000000000000000000000000000000000000000081526004016110f190613701565b60405180910390fd5b60011515600460003373ffffffffffffffffffffffffffffffffffffffff1673ffffffffffffffffffffffffffffffffffffffff16815260200190815260200160002060050160009054906101000a900460ff16151514611190576040517f08c379a0000000000000000000000000000000000000000000000000000000008152600401611187906136a1565b60405180910390fd5b60006040516020016111a1906133f4565b60405160208183030381529060405280519060200120856040516020016111c891906133c6565b60405160208183030381529060405280519060200120146112d457846040516020016111f491906133c6565b60405160208183030381529060405280519060200120600460003373ffffffffffffffffffffffffffffffffffffffff1673ffffffffffffffffffffffffffffffffffffffff16815260200190815260200160002060000160405160200161125c91906133dd565b60405160208183030381529060405280519060200120146112d3576001905084600460003373ffffffffffffffffffffffffffffffffffffffff1673ffffffffffffffffffffffffffffffffffffffff16815260200190815260200160002060000190805190602001906112d1929190612a36565b505b5b6040516020016112e3906133f4565b604051602081830303815290604052805190602001208460405160200161130a91906133c6565b6040516020818303038152906040528051906020012014611416578360405160200161133691906133c6565b60405160208183030381529060405280519060200120600460003373ffffffffffffffffffffffffffffffffffffffff1673ffffffffffffffffffffffffffffffffffffffff16815260200190815260200160002060010160405160200161139e91906133dd565b6040516020818303038152906040528051906020012014611415576001905083600460003373ffffffffffffffffffffffffffffffffffffffff1673ffffffffffffffffffffffffffffffffffffffff1681526020019081526020016000206001019080519060200190611413929190612a36565b505b5b600083146114b45782600460003373ffffffffffffffffffffffffffffffffffffffff1673ffffffffffffffffffffffffffffffffffffffff16815260200190815260200160002060030154146114b3576001905082600460003373ffffffffffffffffffffffffffffffffffffffff1673ffffffffffffffffffffffffffffffffffffffff168152602001908152602001600020600301819055505b5b600082146115525781600460003373ffffffffffffffffffffffffffffffffffffffff1673ffffffffffffffffffffffffffffffffffffffff1681526020019081526020016000206004015414611551576001905081600460003373ffffffffffffffffffffffffffffffffffffffff1673ffffffffffffffffffffffffffffffffffffffff168152602001908152602001600020600401819055505b5b80156115d7577f28a9510eef92dc4b9a2c276d619cc4542f742b4d60296206f0accc035e9a1f1533600460003373ffffffffffffffffffffffffffffffffffffffff1673ffffffffffffffffffffffffffffffffffffffff1681526020019081526020016000206000016040516115ca929190613477565b60405180910390a1611612565b6040517f08c379a000000000000000000000000000000000000000000000000000000000815260040161160990613781565b60405180910390fd5b5050505050565b6006602052816000526040600020818154811061163557600080fd5b90600052602060002001600091509150505481565b600260009054906101000a900460ff1681565b6000600660008373ffffffffffffffffffffffffffffffffffffffff1673ffffffffffffffffffffffffffffffffffffffff168152602001908152602001600020805490509050919050565b60007f0000000000000000000000000000000000000000000000000000000000000000905090565b60606000600660008473ffffffffffffffffffffffffffffffffffffffff1673ffffffffffffffffffffffffffffffffffffffff16815260200190815260200160002080549050905060008167ffffffffffffffff81111561175c577f4e487b7100000000000000000000000000000000000000000000000000000000600052604160045260246000fd5b60405190808252806020026020018201604052801561179557816020015b611782612abc565b81526020019060019003908161177a5790505b5090506000805b8381101561191b5742600582815481106117df577f4e487b7100000000000000000000000000000000000000000000000000000000600052603260045260246000fd5b90600052602060002090600302016002015410156119085760058181548110611831577f4e487b7100000000000000000000000000000000000000000000000000000000600052603260045260246000fd5b90600052602060002090600302016040518060600160405290816000820160009054906101000a900473ffffffffffffffffffffffffffffffffffffffff1673ffffffffffffffffffffffffffffffffffffffff1673ffffffffffffffffffffffffffffffffffffffff168152602001600182015481526020016002820154815250508383815181106118ed577f4e487b7100000000000000000000000000000000000000000000000000000000600052603260045260246000fd5b60200260200101819052506001826119059190613915565b91505b808061191390613b2e565b91505061179c565b50819350505050919050565b7f000000000000000000000000000000000000000000000000000000000000000081565b611953612af3565b60011515600460008473ffffffffffffffffffffffffffffffffffffffff1673ffffffffffffffffffffffffffffffffffffffff16815260200190815260200160002060050160019054906101000a900460ff161515146119e9576040517f08c379a00000000000000000000000000000000000000000000000000000000081526004016119e090613701565b60405180910390fd5b600460008373ffffffffffffffffffffffffffffffffffffffff1673ffffffffffffffffffffffffffffffffffffffff1681526020019081526020016000206040518060e0016040529081600082018054611a4390613acb565b80601f0160208091040260200160405190810160405280929190818152602001828054611a6f90613acb565b8015611abc5780601f10611a9157610100808354040283529160200191611abc565b820191906000526020600020905b815481529060010190602001808311611a9f57829003601f168201915b50505050508152602001600182018054611ad590613acb565b80601f0160208091040260200160405190810160405280929190818152602001828054611b0190613acb565b8015611b4e5780601f10611b2357610100808354040283529160200191611b4e565b820191906000526020600020905b815481529060010190602001808311611b3157829003601f168201915b505050505081526020016002820154815260200160038201548152602001600482015481526020016005820160009054906101000a900460ff161515151581526020016005820160019054906101000a900460ff1615151515815250509050919050565b60011515600460003373ffffffffffffffffffffffffffffffffffffffff1673ffffffffffffffffffffffffffffffffffffffff16815260200190815260200160002060050160019054906101000a900460ff16151514611c48576040517f08c379a0000000000000000000000000000000000000000000000000000000008152600401611c3f90613621565b60405180910390fd5b60001515600460003373ffffffffffffffffffffffffffffffffffffffff1673ffffffffffffffffffffffffffffffffffffffff16815260200190815260200160002060050160009054906101000a900460ff16151514611cde576040517f08c379a0000000000000000000000000000000000000000000000000000000008152600401611cd5906137a1565b60405180910390fd5b6001600460003373ffffffffffffffffffffffffffffffffffffffff1673ffffffffffffffffffffffffffffffffffffffff16815260200190815260200160002060050160006101000a81548160ff0219169083151502179055507f33dae4871e3969137acdf45d646dddde76928a5fd78a059ec185c2e3073f39ad33600460003373ffffffffffffffffffffffffffffffffffffffff1673ffffffffffffffffffffffffffffffffffffffff168152602001908152602001600020600001604051611dab929190613477565b60405180910390a1565b60606000600660008473ffffffffffffffffffffffffffffffffffffffff1673ffffffffffffffffffffffffffffffffffffffff16815260200190815260200160002080549050905060008167ffffffffffffffff811115611e40577f4e487b7100000000000000000000000000000000000000000000000000000000600052604160045260246000fd5b604051908082528060200260200182016040528015611e7957816020015b611e66612abc565b815260200190600190039081611e5e5790505b5090506000805b83811015611fff574260058281548110611ec3577f4e487b7100000000000000000000000000000000000000000000000000000000600052603260045260246000fd5b9060005260206000209060030201600201541115611fec5760058181548110611f15577f4e487b7100000000000000000000000000000000000000000000000000000000600052603260045260246000fd5b90600052602060002090600302016040518060600160405290816000820160009054906101000a900473ffffffffffffffffffffffffffffffffffffffff1673ffffffffffffffffffffffffffffffffffffffff1673ffffffffffffffffffffffffffffffffffffffff16815260200160018201548152602001600282015481525050838381518110611fd1577f4e487b7100000000000000000000000000000000000000000000000000000000600052603260045260246000fd5b6020026020010181905250600182611fe99190613915565b91505b8080611ff790613b2e565b915050611e80565b50819350505050919050565b6003818154811061201b57600080fd5b906000526020600020016000915054906101000a900473ffffffffffffffffffffffffffffffffffffffff1681565b3373ffffffffffffffffffffffffffffffffffffffff168173ffffffffffffffffffffffffffffffffffffffff1614156120b9576040517f08c379a00000000000000000000000000000000000000000000000000000000081526004016120b090613741565b60405180910390fd5b600460008273ffffffffffffffffffffffffffffffffffffffff1673ffffffffffffffffffffffffffffffffffffffff168152602001908152602001600020600401543373ffffffffffffffffffffffffffffffffffffffff16311015612155576040517f08c379a000000000000000000000000000000000000000000000000000000000815260040161214c90613761565b60405180910390fd5b600460008273ffffffffffffffffffffffffffffffffffffffff1673ffffffffffffffffffffffffffffffffffffffff1681526020019081526020016000206004015434146121d9576040517f08c379a00000000000000000000000000000000000000000000000000000000081526004016121d090613721565b60405180910390fd5b60011515600460008373ffffffffffffffffffffffffffffffffffffffff1673ffffffffffffffffffffffffffffffffffffffff16815260200190815260200160002060050160019054906101000a900460ff1615151461226f576040517f08c379a000000000000000000000000000000000000000000000000000000000815260040161226690613701565b60405180910390fd5b60011515600460008373ffffffffffffffffffffffffffffffffffffffff1673ffffffffffffffffffffffffffffffffffffffff16815260200190815260200160002060050160009054906101000a900460ff16151514612305576040517f08c379a00000000000000000000000000000000000000000000000000000000081526004016122fc90613601565b60405180910390fd5b6000600660003373ffffffffffffffffffffffffffffffffffffffff1673ffffffffffffffffffffffffffffffffffffffff16815260200190815260200160002080548060200260200160405190810160405280929190818152602001828054801561239057602002820191906000526020600020905b81548152602001906001019080831161237c575b50505050509050600080600090505b825181101561256f578373ffffffffffffffffffffffffffffffffffffffff1660058483815181106123fa577f4e487b7100000000000000000000000000000000000000000000000000000000600052603260045260246000fd5b602002602001015181548110612439577f4e487b7100000000000000000000000000000000000000000000000000000000600052603260045260246000fd5b906000526020600020906003020160000160009054906101000a900473ffffffffffffffffffffffffffffffffffffffff1673ffffffffffffffffffffffffffffffffffffffff16141561255c574260058483815181106124c3577f4e487b7100000000000000000000000000000000000000000000000000000000600052603260045260246000fd5b602002602001015181548110612502577f4e487b7100000000000000000000000000000000000000000000000000000000600052603260045260246000fd5b90600052602060002090600302016002015410915081612557576040517f08c379a000000000000000000000000000000000000000000000000000000000815260040161254e90613661565b60405180910390fd5b61256f565b808061256790613b2e565b91505061239f565b3073ffffffffffffffffffffffffffffffffffffffff166108fc349081150290604051600060405180830381858888f193505050501580156125b5573d6000803e3d6000fd5b50600062015180600460008773ffffffffffffffffffffffffffffffffffffffff1673ffffffffffffffffffffffffffffffffffffffff16815260200190815260200160002060030154612609919061399c565b426126149190613915565b9050821561274157426005858481518110612658577f4e487b7100000000000000000000000000000000000000000000000000000000600052603260045260246000fd5b602002602001015181548110612697577f4e487b7100000000000000000000000000000000000000000000000000000000600052603260045260246000fd5b9060005260206000209060030201600101819055508060058584815181106126e8577f4e487b7100000000000000000000000000000000000000000000000000000000600052603260045260246000fd5b602002602001015181548110612727577f4e487b7100000000000000000000000000000000000000000000000000000000600052603260045260246000fd5b906000526020600020906003020160020181905550612872565b600560405180606001604052808773ffffffffffffffffffffffffffffffffffffffff16815260200142815260200183815250908060018154018082558091505060019003906000526020600020906003020160009091909190915060008201518160000160006101000a81548173ffffffffffffffffffffffffffffffffffffffff021916908373ffffffffffffffffffffffffffffffffffffffff16021790555060208201518160010155604082015181600201555050600660003373ffffffffffffffffffffffffffffffffffffffff1673ffffffffffffffffffffffffffffffffffffffff168152602001908152602001600020600160058054905061284b91906139f6565b90806001815401808255809150506001900390600052602060002001600090919091909150555b6000606460008054906101000a900460ff1660ff1634612892919061399c565b61289c919061396b565b905080600460008873ffffffffffffffffffffffffffffffffffffffff1673ffffffffffffffffffffffffffffffffffffffff168152602001908152602001600020600401546128ec91906139f6565b600460008873ffffffffffffffffffffffffffffffffffffffff1673ffffffffffffffffffffffffffffffffffffffff168152602001908152602001600020600201600082825461293d9190613915565b9250508190555080600160008282546129569190613915565b925050819055507f51bb78b71c6aba7c377de6374e250ff83d59fc71c6a8b28f3aaac77c33b6dceb33874285600460008c73ffffffffffffffffffffffffffffffffffffffff1673ffffffffffffffffffffffffffffffffffffffff168152602001908152602001600020600401546040516129d6959493929190613424565b60405180910390a17fc5a2b7ad6439179b1edea47d8a4bc00b2c5270a1c741c00fab7be4012caa7d0a3382604051612a0f9291906134a7565b60405180910390a1505050505050565b60015481565b60008054906101000a900460ff1681565b828054612a4290613acb565b90600052602060002090601f016020900481019282612a645760008555612aab565b82601f10612a7d57805160ff1916838001178555612aab565b82800160010185558215612aab579182015b82811115612aaa578251825591602001919060010190612a8f565b5b509050612ab89190612b34565b5090565b6040518060600160405280600073ffffffffffffffffffffffffffffffffffffffff16815260200160008152602001600081525090565b6040518060e0016040528060608152602001606081526020016000815260200160008152602001600081526020016000151581526020016000151581525090565b5b80821115612b4d576000816000905550600101612b35565b5090565b6000612b64612b5f8461385e565b613839565b905082815260208101848484011115612b7c57600080fd5b612b87848285613a89565b509392505050565b600081359050612b9e81613fe4565b92915050565b600081359050612bb381613ffb565b92915050565b600082601f830112612bca57600080fd5b8135612bda848260208601612b51565b91505092915050565b600081359050612bf281614012565b92915050565b600081359050612c0781614029565b92915050565b600060208284031215612c1f57600080fd5b6000612c2d84828501612b8f565b91505092915050565b60008060408385031215612c4957600080fd5b6000612c5785828601612b8f565b9250506020612c6885828601612be3565b9150509250929050565b60008060008060808587031215612c8857600080fd5b600085013567ffffffffffffffff811115612ca257600080fd5b612cae87828801612bb9565b945050602085013567ffffffffffffffff811115612ccb57600080fd5b612cd787828801612bb9565b9350506040612ce887828801612be3565b9250506060612cf987828801612ba4565b91505092959194509250565b60008060008060808587031215612d1b57600080fd5b600085013567ffffffffffffffff811115612d3557600080fd5b612d4187828801612bb9565b945050602085013567ffffffffffffffff811115612d5e57600080fd5b612d6a87828801612bb9565b9350506040612d7b87828801612be3565b9250506060612d8c87828801612be3565b91505092959194509250565b600060208284031215612daa57600080fd5b6000612db884828501612be3565b91505092915050565b600060208284031215612dd357600080fd5b6000612de184828501612bf8565b91505092915050565b6000612df68383613357565b60608301905092915050565b612e0b81613a2a565b82525050565b612e1a81613a2a565b82525050565b6000612e2b826138b4565b612e3581856138d7565b9350612e408361388f565b8060005b83811015612e71578151612e588882612dea565b9750612e63836138ca565b925050600181019050612e44565b5085935050505092915050565b612e8781613a3c565b82525050565b612e9681613a3c565b82525050565b6000612ea7826138bf565b612eb181856138e8565b9350612ec1818560208601613a98565b612eca81613c33565b840191505092915050565b6000612ee0826138bf565b612eea81856138f9565b9350612efa818560208601613a98565b612f0381613c33565b840191505092915050565b6000612f19826138bf565b612f23818561390a565b9350612f33818560208601613a98565b80840191505092915050565b60008154612f4c81613acb565b612f5681866138f9565b94506001821660008114612f715760018114612f8357612fb6565b60ff1983168652602086019350612fb6565b612f8c8561389f565b60005b83811015612fae57815481890152600182019150602081019050612f8f565b808801955050505b50505092915050565b60008154612fcc81613acb565b612fd6818661390a565b94506001821660008114612ff1576001811461300257613035565b60ff19831686528186019350613035565b61300b8561389f565b60005b8381101561302d5781548189015260018201915060208101905061300e565b838801955050505b50505092915050565b600061304b601c836138f9565b915061305682613c44565b602082019050919050565b600061306e602b836138f9565b915061307982613c6d565b604082019050919050565b6000613091601e836138f9565b915061309c82613cbc565b602082019050919050565b60006130b46024836138f9565b91506130bf82613ce5565b604082019050919050565b60006130d76016836138f9565b91506130e282613d34565b602082019050919050565b60006130fa6022836138f9565b915061310582613d5d565b604082019050919050565b600061311d6012836138f9565b915061312882613dac565b602082019050919050565b60006131406023836138f9565b915061314b82613dd5565b604082019050919050565b6000613163600b836138f9565b915061316e82613e24565b602082019050919050565b6000613186600d836138f9565b915061319182613e4d565b602082019050919050565b60006131a96017836138f9565b91506131b482613e76565b602082019050919050565b60006131cc6015836138f9565b91506131d782613e9f565b602082019050919050565b60006131ef6024836138f9565b91506131fa82613ec8565b604082019050919050565b60006132126014836138f9565b915061321d82613f17565b602082019050919050565b600061323560008361390a565b915061324082613f40565b600082019050919050565b6000613258600f836138f9565b915061326382613f43565b602082019050919050565b600061327b6021836138f9565b915061328682613f6c565b604082019050919050565b600061329e600f836138f9565b91506132a982613fbb565b602082019050919050565b600060e08301600083015184820360008601526132d18282612e9c565b915050602083015184820360208601526132eb8282612e9c565b91505060408301516133006040860182613399565b5060608301516133136060860182613399565b5060808301516133266080860182613399565b5060a083015161333960a0860182612e7e565b5060c083015161334c60c0860182612e7e565b508091505092915050565b60608201600082015161336d6000850182612e02565b5060208201516133806020850182613399565b5060408201516133936040850182613399565b50505050565b6133a281613a72565b82525050565b6133b181613a72565b82525050565b6133c081613a7c565b82525050565b60006133d28284612f0e565b915081905092915050565b60006133e98284612fbf565b915081905092915050565b60006133ff82613228565b9150819050919050565b600060208201905061341e6000830184612e11565b92915050565b600060a0820190506134396000830188612e11565b6134466020830187612e11565b61345360408301866133a8565b61346060608301856133a8565b61346d60808301846133a8565b9695505050505050565b600060408201905061348c6000830185612e11565b818103602083015261349e8184612f3f565b90509392505050565b60006040820190506134bc6000830185612e11565b6134c960208301846133a8565b9392505050565b60006060820190506134e56000830186612e11565b6134f260208301856133a8565b6134ff60408301846133a8565b949350505050565b600060208201905081810360008301526135218184612e20565b905092915050565b600060208201905061353e6000830184612e8d565b92915050565b600060e082019050818103600083015261355e818a612ed5565b905081810360208301526135728189612ed5565b905061358160408301886133a8565b61358e60608301876133a8565b61359b60808301866133a8565b6135a860a0830185612e8d565b6135b560c0830184612e8d565b98975050505050505050565b600060208201905081810360008301526135da8161303e565b9050919050565b600060208201905081810360008301526135fa81613061565b9050919050565b6000602082019050818103600083015261361a81613084565b9050919050565b6000602082019050818103600083015261363a816130a7565b9050919050565b6000602082019050818103600083015261365a816130ca565b9050919050565b6000602082019050818103600083015261367a816130ed565b9050919050565b6000602082019050818103600083015261369a81613110565b9050919050565b600060208201905081810360008301526136ba81613133565b9050919050565b600060208201905081810360008301526136da81613156565b9050919050565b600060208201905081810360008301526136fa81613179565b9050919050565b6000602082019050818103600083015261371a8161319c565b9050919050565b6000602082019050818103600083015261373a816131bf565b9050919050565b6000602082019050818103600083015261375a816131e2565b9050919050565b6000602082019050818103600083015261377a81613205565b9050919050565b6000602082019050818103600083015261379a8161324b565b9050919050565b600060208201905081810360008301526137ba8161326e565b9050919050565b600060208201905081810360008301526137da81613291565b9050919050565b600060208201905081810360008301526137fb81846132b4565b905092915050565b600060208201905061381860008301846133a8565b92915050565b600060208201905061383360008301846133b7565b92915050565b6000613843613854565b905061384f8282613afd565b919050565b6000604051905090565b600067ffffffffffffffff82111561387957613878613c04565b5b61388282613c33565b9050602081019050919050565b6000819050602082019050919050565b60008190508160005260206000209050919050565b600081519050919050565b600081519050919050565b6000602082019050919050565b600082825260208201905092915050565b600082825260208201905092915050565b600082825260208201905092915050565b600081905092915050565b600061392082613a72565b915061392b83613a72565b9250827fffffffffffffffffffffffffffffffffffffffffffffffffffffffffffffffff038211156139605761395f613b77565b5b828201905092915050565b600061397682613a72565b915061398183613a72565b92508261399157613990613ba6565b5b828204905092915050565b60006139a782613a72565b91506139b283613a72565b9250817fffffffffffffffffffffffffffffffffffffffffffffffffffffffffffffffff04831182151516156139eb576139ea613b77565b5b828202905092915050565b6000613a0182613a72565b9150613a0c83613a72565b925082821015613a1f57613a1e613b77565b5b828203905092915050565b6000613a3582613a52565b9050919050565b60008115159050919050565b6000819050919050565b600073ffffffffffffffffffffffffffffffffffffffff82169050919050565b6000819050919050565b600060ff82169050919050565b82818337600083830152505050565b60005b83811015613ab6578082015181840152602081019050613a9b565b83811115613ac5576000848401525b50505050565b60006002820490506001821680613ae357607f821691505b60208210811415613af757613af6613bd5565b5b50919050565b613b0682613c33565b810181811067ffffffffffffffff82111715613b2557613b24613c04565b5b80604052505050565b6000613b3982613a72565b91507fffffffffffffffffffffffffffffffffffffffffffffffffffffffffffffffff821415613b6c57613b6b613b77565b5b600182019050919050565b7f4e487b7100000000000000000000000000000000000000000000000000000000600052601160045260246000fd5b7f4e487b7100000000000000000000000000000000000000000000000000000000600052601260045260246000fd5b7f4e487b7100000000000000000000000000000000000000000000000000000000600052602260045260246000fd5b7f4e487b7100000000000000000000000000000000000000000000000000000000600052604160045260246000fd5b6000601f19601f8301169050919050565b7f596f75722063726561746f7220646f6573206e6f742065786973747300000000600082015250565b7f596f75722063726561746f72206163636f756e7420697320616c72656164792060008201527f6465616374697661746564000000000000000000000000000000000000000000602082015250565b7f43726561746f72206163636f756e742069732064656163746976617465640000600082015250565b7f596f75722063726561746f72206163636f756e7420646f6573206e6f7420657860008201527f6973747300000000000000000000000000000000000000000000000000000000602082015250565b7f43726561746f7220616c72656164792065786973747300000000000000000000600082015250565b7f416c7265616479207375627363726962656420746f207468697320637265617460008201527f6f72000000000000000000000000000000000000000000000000000000000000602082015250565b7f496e73756666696369656e742066756e64730000000000000000000000000000600082015250565b7f596f75722063726561746f72206163636f756e7420697320646561637469766160008201527f7465640000000000000000000000000000000000000000000000000000000000602082015250565b7f416c726561647920736574000000000000000000000000000000000000000000600082015250565b7f4d6f7265207468616e2035302500000000000000000000000000000000000000600082015250565b7f43726561746f7220646f6573206e6f7420657869737473000000000000000000600082015250565b7f53656e6420537562736372697074696f6e206665650000000000000000000000600082015250565b7f4e6f206e65656420746f2073756273637269626520746f206f776e20636f6e7460008201527f656e742100000000000000000000000000000000000000000000000000000000602082015250565b7f496e73756666696369656e742042616c616e6365000000000000000000000000600082015250565b50565b7f4e6f7468696e6720757064617465640000000000000000000000000000000000600082015250565b7f796f7572206163636f756e7420697320416c726561647920616374697661746560008201527f6400000000000000000000000000000000000000000000000000000000000000602082015250565b7f5769746864726177204c6f636b65640000000000000000000000000000000000600082015250565b613fed81613a2a565b8114613ff857600080fd5b50565b61400481613a48565b811461400f57600080fd5b50565b61401b81613a72565b811461402657600080fd5b50565b61403281613a7c565b811461403d57600080fd5b5056fea26469706673582212201b392b42bd5d1b11dcfc8608ac75dab41460e115390ecdb837e859f62fbc888a64736f6c63430008040033",
  "linkReferences": {},
  "deployedLinkReferences": {}
}