{
  "_format": "hh-sol-artifact-1",
  "contractName": "Fanbuidl",
  "sourceName": "contracts/Fanbuidl.sol",
  "abi": [
    {
      "inputs": [],
      "stateMutability": "nonpayable",
      "type": "constructor"
    },
    {
      "anonymous": false,
      "inputs": [
        {
          "indexed": false,
          "internalType": "address",
          "name": "",
          "type": "address"
        },
        {
          "indexed": false,
          "internalType": "string",
          "name": "",
          "type": "string"
        }
      ],
      "name": "creatorActivated",
      "type": "event"
    },
    {
      "anonymous": false,
      "inputs": [
        {
          "indexed": false,
          "internalType": "address",
          "name": "",
          "type": "address"
        },
        {
          "indexed": false,
          "internalType": "string",
          "name": "",
          "type": "string"
        }
      ],
      "name": "creatorCreated",
      "type": "event"
    },
    {
      "anonymous": false,
      "inputs": [
        {
          "indexed": false,
          "internalType": "address",
          "name": "",
          "type": "address"
        },
        {
          "indexed": false,
          "internalType": "string",
          "name": "",
          "type": "string"
        }
      ],
      "name": "creatorDeactivated",
      "type": "event"
    },
    {
      "anonymous": false,
      "inputs": [
        {
          "indexed": false,
          "internalType": "address",
          "name": "",
          "type": "address"
        },
        {
          "indexed": false,
          "internalType": "string",
          "name": "",
          "type": "string"
        }
      ],
      "name": "creatorUpdated",
      "type": "event"
    },
    {
      "anonymous": false,
      "inputs": [
        {
          "indexed": false,
          "internalType": "address",
          "name": "",
          "type": "address"
        },
        {
          "indexed": false,
          "internalType": "uint256",
          "name": "",
          "type": "uint256"
        }
      ],
      "name": "feeCollected",
      "type": "event"
    },
    {
      "anonymous": false,
      "inputs": [
        {
          "indexed": false,
          "internalType": "address",
          "name": "",
          "type": "address"
        },
        {
          "indexed": false,
          "internalType": "uint256",
          "name": "",
          "type": "uint256"
        }
      ],
      "name": "fundsReceived",
      "type": "event"
    },
    {
      "anonymous": false,
      "inputs": [
        {
          "indexed": false,
          "internalType": "address",
          "name": "",
          "type": "address"
        },
        {
          "indexed": false,
          "internalType": "address",
          "name": "",
          "type": "address"
        },
        {
          "indexed": false,
          "internalType": "uint256",
          "name": "",
          "type": "uint256"
        },
        {
          "indexed": false,
          "internalType": "uint256",
          "name": "",
          "type": "uint256"
        },
        {
          "indexed": false,
          "internalType": "uint256",
          "name": "",
          "type": "uint256"
        }
      ],
      "name": "gotSubscribed",
      "type": "event"
    },
    {
      "stateMutability": "payable",
      "type": "fallback"
    },
    {
      "inputs": [],
      "name": "activateCreator",
      "outputs": [],
      "stateMutability": "nonpayable",
      "type": "function"
    },
    {
      "inputs": [],
      "name": "collectedFee",
      "outputs": [
        {
          "internalType": "uint256",
          "name": "",
          "type": "uint256"
        }
      ],
      "stateMutability": "view",
      "type": "function"
    },
    {
      "inputs": [
        {
          "internalType": "string",
          "name": "name",
          "type": "string"
        },
        {
          "internalType": "string",
          "name": "desc",
          "type": "string"
        },
        {
          "internalType": "uint256",
          "name": "subdays",
          "type": "uint256"
        },
        {
          "internalType": "uint256",
          "name": "fee",
          "type": "uint256"
        }
      ],
      "name": "createCreator",
      "outputs": [],
      "stateMutability": "nonpayable",
      "type": "function"
    },
    {
      "inputs": [],
      "name": "creatorFee",
      "outputs": [
        {
          "internalType": "uint8",
          "name": "",
          "type": "uint8"
        }
      ],
      "stateMutability": "view",
      "type": "function"
    },
    {
      "inputs": [
        {
          "internalType": "address",
          "name": "",
          "type": "address"
        }
      ],
      "name": "creatorList",
      "outputs": [
        {
          "internalType": "string",
          "name": "accountName",
          "type": "string"
        },
        {
          "internalType": "string",
          "name": "desription",
          "type": "string"
        },
        {
          "internalType": "uint256",
          "name": "balance",
          "type": "uint256"
        },
        {
          "internalType": "uint256",
          "name": "subDays",
          "type": "uint256"
        },
        {
          "internalType": "uint256",
          "name": "subFee",
          "type": "uint256"
        },
        {
          "internalType": "bool",
          "name": "active",
          "type": "bool"
        },
        {
          "internalType": "bool",
          "name": "check",
          "type": "bool"
        }
      ],
      "stateMutability": "view",
      "type": "function"
    },
    {
      "inputs": [
        {
          "internalType": "uint256",
          "name": "",
          "type": "uint256"
        }
      ],
      "name": "creators",
      "outputs": [
        {
          "internalType": "address",
          "name": "",
          "type": "address"
        }
      ],
      "stateMutability": "view",
      "type": "function"
    },
    {
      "inputs": [],
      "name": "deactivateCreator",
      "outputs": [],
      "stateMutability": "nonpayable",
      "type": "function"
    },
    {
      "inputs": [
        {
          "internalType": "address",
          "name": "subscriber",
          "type": "address"
        }
      ],
      "name": "getActiveSubscriptionCount",
      "outputs": [
        {
          "internalType": "uint256",
          "name": "",
          "type": "uint256"
        }
      ],
      "stateMutability": "view",
      "type": "function"
    },
    {
      "inputs": [
        {
          "internalType": "address",
          "name": "subscriber",
          "type": "address"
        }
      ],
      "name": "getActiveSubscriptions",
      "outputs": [
        {
          "components": [
            {
              "internalType": "address",
              "name": "creator",
              "type": "address"
            },
            {
              "internalType": "uint256",
              "name": "startDate",
              "type": "uint256"
            },
            {
              "internalType": "uint256",
              "name": "endDate",
              "type": "uint256"
            }
          ],
          "internalType": "struct Fanbuidl.Subcscription[]",
          "name": "",
          "type": "tuple[]"
        }
      ],
      "stateMutability": "view",
      "type": "function"
    },
    {
      "inputs": [],
      "name": "getBalance",
      "outputs": [
        {
          "internalType": "uint256",
          "name": "",
          "type": "uint256"
        }
      ],
      "stateMutability": "view",
      "type": "function"
    },
    {
      "inputs": [
        {
          "internalType": "address",
          "name": "ad",
          "type": "address"
        }
      ],
      "name": "getCreator",
      "outputs": [
        {
          "components": [
            {
              "internalType": "string",
              "name": "accountName",
              "type": "string"
            },
            {
              "internalType": "string",
              "name": "desription",
              "type": "string"
            },
            {
              "internalType": "uint256",
              "name": "balance",
              "type": "uint256"
            },
            {
              "internalType": "uint256",
              "name": "subDays",
              "type": "uint256"
            },
            {
              "internalType": "uint256",
              "name": "subFee",
              "type": "uint256"
            },
            {
              "internalType": "bool",
              "name": "active",
              "type": "bool"
            },
            {
              "internalType": "bool",
              "name": "check",
              "type": "bool"
            }
          ],
          "internalType": "struct Fanbuidl.Creator",
          "name": "cr",
          "type": "tuple"
        }
      ],
      "stateMutability": "view",
      "type": "function"
    },
    {
      "inputs": [
        {
          "internalType": "address",
          "name": "subscriber",
          "type": "address"
        }
      ],
      "name": "getExpiredSubscriptions",
      "outputs": [
        {
          "components": [
            {
              "internalType": "address",
              "name": "creator",
              "type": "address"
            },
            {
              "internalType": "uint256",
              "name": "startDate",
              "type": "uint256"
            },
            {
              "internalType": "uint256",
              "name": "endDate",
              "type": "uint256"
            }
          ],
          "internalType": "struct Fanbuidl.Subcscription[]",
          "name": "",
          "type": "tuple[]"
        }
      ],
      "stateMutability": "view",
      "type": "function"
    },
    {
      "inputs": [],
      "name": "getOwner",
      "outputs": [
        {
          "internalType": "address",
          "name": "",
          "type": "address"
        }
      ],
      "stateMutability": "view",
      "type": "function"
    },
    {
      "inputs": [],
      "name": "owner",
      "outputs": [
        {
          "internalType": "address",
          "name": "",
          "type": "address"
        }
      ],
      "stateMutability": "view",
      "type": "function"
    },
    {
      "inputs": [
        {
          "internalType": "uint8",
          "name": "_fee",
          "type": "uint8"
        }
      ],
      "name": "setCreatorFee",
      "outputs": [],
      "stateMutability": "nonpayable",
      "type": "function"
    },
    {
      "inputs": [
        {
          "internalType": "address",
          "name": "",
          "type": "address"
        },
        {
          "internalType": "uint256",
          "name": "",
          "type": "uint256"
        }
      ],
      "name": "subList",
      "outputs": [
        {
          "internalType": "uint256",
          "name": "",
          "type": "uint256"
        }
      ],
      "stateMutability": "view",
      "type": "function"
    },
    {
      "inputs": [
        {
          "internalType": "address",
          "name": "creator",
          "type": "address"
        }
      ],
      "name": "subscribeMe",
      "outputs": [],
      "stateMutability": "payable",
      "type": "function"
    },
    {
      "inputs": [
        {
          "internalType": "uint256",
          "name": "",
          "type": "uint256"
        }
      ],
      "name": "subscriptions",
      "outputs": [
        {
          "internalType": "address",
          "name": "creator",
          "type": "address"
        },
        {
          "internalType": "uint256",
          "name": "startDate",
          "type": "uint256"
        },
        {
          "internalType": "uint256",
          "name": "endDate",
          "type": "uint256"
        }
      ],
      "stateMutability": "view",
      "type": "function"
    },
    {
      "inputs": [
        {
          "internalType": "string",
          "name": "_name",
          "type": "string"
        },
        {
          "internalType": "string",
          "name": "_desc",
          "type": "string"
        },
        {
          "internalType": "uint256",
          "name": "subdays",
          "type": "uint256"
        },
        {
          "internalType": "int256",
          "name": "_subFee",
          "type": "int256"
        }
      ],
      "name": "updateCreator",
      "outputs": [],
      "stateMutability": "nonpayable",
      "type": "function"
    },
    {
      "inputs": [
        {
          "internalType": "uint256",
          "name": "_amount",
          "type": "uint256"
        }
      ],
      "name": "withdrawFunds",
      "outputs": [],
      "stateMutability": "payable",
      "type": "function"
    },
    {
      "inputs": [],
      "name": "withdrawLock",
      "outputs": [
        {
          "internalType": "bool",
          "name": "",
          "type": "bool"
        }
      ],
      "stateMutability": "view",
      "type": "function"
    },
    {
      "stateMutability": "payable",
      "type": "receive"
    }
  ],
  "bytecode": "0x60a060405234801561001057600080fd5b503373ffffffffffffffffffffffffffffffffffffffff1660808173ffffffffffffffffffffffffffffffffffffffff1660601b81525050600a6000806101000a81548160ff021916908360ff16021790555060805160601c613e6f61009d600039600081816108bc015281816109c901528181610cf4015281816114a601526117220152613e6f6000f3fe60806040526004361061012e5760003560e01c80635dff3a03116100ab578063c485def41161006f578063c485def414610440578063c70eba2a14610457578063cd53d08e14610494578063cdb447fe146104d1578063e811f50a146104ed578063e88958dc146105185761016e565b80635dff3a0314610333578063893d20e81461037057806389932d6a1461039b5780638da5cb5b146103d8578063a0210309146104035761016e565b80632370b8a7116100f25780632370b8a71461023a5780632d5bbf601461026357806335b25d34146102a2578063448956a6146102cb5780635c388ca6146103085761016e565b8063115b15701461017057806312065fe0146101b35780631421b7d2146101de578063155dd5ee146101f557806320440a94146102115761016e565b3661016e577f445ab35117cf4b171680957d35f1a089ded7f4608bdef1797b266df9d930f28e33346040516101649291906132a0565b60405180910390a1005b005b34801561017c57600080fd5b5061019760048036038101906101929190612a06565b610543565b6040516101aa979695949392919061333d565b60405180910390f35b3480156101bf57600080fd5b506101c86106af565b6040516101d591906135fc565b60405180910390f35b3480156101ea57600080fd5b506101f36106b7565b005b61020f600480360381019061020a9190612b91565b6108ba565b005b34801561021d57600080fd5b5061023860048036038101906102339190612afe565b610a65565b005b34801561024657600080fd5b50610261600480360381019061025c9190612bba565b610cf2565b005b34801561026f57600080fd5b5061028a60048036038101906102859190612b91565b610e03565b604051610299939291906132c9565b60405180910390f35b3480156102ae57600080fd5b506102c960048036038101906102c49190612a6b565b610e5d565b005b3480156102d757600080fd5b506102f260048036038101906102ed9190612a2f565b611412565b6040516102ff91906135fc565b60405180910390f35b34801561031457600080fd5b5061031d611443565b60405161032a9190613322565b60405180910390f35b34801561033f57600080fd5b5061035a60048036038101906103559190612a06565b611456565b60405161036791906135fc565b60405180910390f35b34801561037c57600080fd5b506103856114a2565b6040516103929190613202565b60405180910390f35b3480156103a757600080fd5b506103c260048036038101906103bd9190612a06565b6114ca565b6040516103cf9190613300565b60405180910390f35b3480156103e457600080fd5b506103ed611720565b6040516103fa9190613202565b60405180910390f35b34801561040f57600080fd5b5061042a60048036038101906104259190612a06565b611744565b60405161043791906135da565b60405180910390f35b34801561044c57600080fd5b506104556119ab565b005b34801561046357600080fd5b5061047e60048036038101906104799190612a06565b611bae565b60405161048b9190613300565b60405180910390f35b3480156104a057600080fd5b506104bb60048036038101906104b69190612b91565b611e04565b6040516104c89190613202565b60405180910390f35b6104eb60048036038101906104e69190612a06565b611e43565b005b3480156104f957600080fd5b50610502612818565b60405161050f91906135fc565b60405180910390f35b34801561052457600080fd5b5061052d61281e565b60405161053a9190613617565b60405180910390f35b6004602052806000526040600020600091509050806000018054610566906138c4565b80601f0160208091040260200160405190810160405280929190818152602001828054610592906138c4565b80156105df5780601f106105b4576101008083540402835291602001916105df565b820191906000526020600020905b8154815290600101906020018083116105c257829003601f168201915b5050505050908060010180546105f4906138c4565b80601f0160208091040260200160405190810160405280929190818152602001828054610620906138c4565b801561066d5780601f106106425761010080835404028352916020019161066d565b820191906000526020600020905b81548152906001019060200180831161065057829003601f168201915b5050505050908060020154908060030154908060040154908060050160009054906101000a900460ff16908060050160019054906101000a900460ff16905087565b600047905090565b60011515600460003373ffffffffffffffffffffffffffffffffffffffff1673ffffffffffffffffffffffffffffffffffffffff16815260200190815260200160002060050160019054906101000a900460ff1615151461074d576040517f08c379a0000000000000000000000000000000000000000000000000000000008152600401610744906133ba565b60405180910390fd5b60011515600460003373ffffffffffffffffffffffffffffffffffffffff1673ffffffffffffffffffffffffffffffffffffffff16815260200190815260200160002060050160009054906101000a900460ff161515146107e3576040517f08c379a00000000000000000000000000000000000000000000000000000000081526004016107da906133da565b60405180910390fd5b6000600460003373ffffffffffffffffffffffffffffffffffffffff1673ffffffffffffffffffffffffffffffffffffffff16815260200190815260200160002060050160006101000a81548160ff0219169083151502179055507fbb3ee8ebf1986e1d606f357d66cf35186b8d67b737fbdf816befea32a3fd462f33600460003373ffffffffffffffffffffffffffffffffffffffff1673ffffffffffffffffffffffffffffffffffffffff1681526020019081526020016000206000016040516108b0929190613270565b60405180910390a1565b7f000000000000000000000000000000000000000000000000000000000000000073ffffffffffffffffffffffffffffffffffffffff163373ffffffffffffffffffffffffffffffffffffffff161461091257600080fd5b6001548110610956576040517f08c379a000000000000000000000000000000000000000000000000000000000815260040161094d9061347a565b60405180910390fd5b60001515600260009054906101000a900460ff161515146109ac576040517f08c379a00000000000000000000000000000000000000000000000000000000081526004016109a3906135ba565b60405180910390fd5b6001600260006101000a81548160ff0219169083151502179055507f000000000000000000000000000000000000000000000000000000000000000073ffffffffffffffffffffffffffffffffffffffff166108fc829081150290604051600060405180830381858888f19350505050158015610a2d573d6000803e3d6000fd5b508060016000828254610a4091906137ef565b925050819055506000600260006101000a81548160ff02191690831515021790555050565b60001515600460003373ffffffffffffffffffffffffffffffffffffffff1673ffffffffffffffffffffffffffffffffffffffff16815260200190815260200160002060050160019054906101000a900460ff16151514610afb576040517f08c379a0000000000000000000000000000000000000000000000000000000008152600401610af29061343a565b60405180910390fd5b6003339080600181540180825580915050600190039060005260206000200160009091909190916101000a81548173ffffffffffffffffffffffffffffffffffffffff021916908373ffffffffffffffffffffffffffffffffffffffff1602179055506040518060e001604052808581526020018481526020016000815260200183815260200182815260200160011515815260200160011515815250600460003373ffffffffffffffffffffffffffffffffffffffff1673ffffffffffffffffffffffffffffffffffffffff1681526020019081526020016000206000820151816000019080519060200190610bf392919061282f565b506020820151816001019080519060200190610c1092919061282f565b5060408201518160020155606082015181600301556080820151816004015560a08201518160050160006101000a81548160ff02191690831515021790555060c08201518160050160016101000a81548160ff0219169083151502179055509050507fbe655ea337469721a58ab6c884d1c0a7c4223c93ae3deea43234f5b36aacd55633600460003373ffffffffffffffffffffffffffffffffffffffff1673ffffffffffffffffffffffffffffffffffffffff168152602001908152602001600020600001604051610ce4929190613270565b60405180910390a150505050565b7f000000000000000000000000000000000000000000000000000000000000000073ffffffffffffffffffffffffffffffffffffffff163373ffffffffffffffffffffffffffffffffffffffff1614610d4a57600080fd5b8060ff1660008054906101000a900460ff1660ff161415610da0576040517f08c379a0000000000000000000000000000000000000000000000000000000008152600401610d97906134ba565b60405180910390fd5b60328160ff1610610de6576040517f08c379a0000000000000000000000000000000000000000000000000000000008152600401610ddd906134da565b60405180910390fd5b806000806101000a81548160ff021916908360ff16021790555050565b60058181548110610e1357600080fd5b90600052602060002090600302016000915090508060000160009054906101000a900473ffffffffffffffffffffffffffffffffffffffff16908060010154908060020154905083565b60011515600460003373ffffffffffffffffffffffffffffffffffffffff1673ffffffffffffffffffffffffffffffffffffffff16815260200190815260200160002060050160019054906101000a900460ff16151514610ef3576040517f08c379a0000000000000000000000000000000000000000000000000000000008152600401610eea906134fa565b60405180910390fd5b60011515600460003373ffffffffffffffffffffffffffffffffffffffff1673ffffffffffffffffffffffffffffffffffffffff16815260200190815260200160002060050160009054906101000a900460ff16151514610f89576040517f08c379a0000000000000000000000000000000000000000000000000000000008152600401610f809061349a565b60405180910390fd5b6000604051602001610f9a906131ed565b6040516020818303038152906040528051906020012085604051602001610fc191906131bf565b60405160208183030381529060405280519060200120146110cd5784604051602001610fed91906131bf565b60405160208183030381529060405280519060200120600460003373ffffffffffffffffffffffffffffffffffffffff1673ffffffffffffffffffffffffffffffffffffffff16815260200190815260200160002060000160405160200161105591906131d6565b60405160208183030381529060405280519060200120146110cc576001905084600460003373ffffffffffffffffffffffffffffffffffffffff1673ffffffffffffffffffffffffffffffffffffffff16815260200190815260200160002060000190805190602001906110ca92919061282f565b505b5b6040516020016110dc906131ed565b604051602081830303815290604052805190602001208460405160200161110391906131bf565b604051602081830303815290604052805190602001201461120f578360405160200161112f91906131bf565b60405160208183030381529060405280519060200120600460003373ffffffffffffffffffffffffffffffffffffffff1673ffffffffffffffffffffffffffffffffffffffff16815260200190815260200160002060010160405160200161119791906131d6565b604051602081830303815290604052805190602001201461120e576001905083600460003373ffffffffffffffffffffffffffffffffffffffff1673ffffffffffffffffffffffffffffffffffffffff168152602001908152602001600020600101908051906020019061120c92919061282f565b505b5b600083146112ad5782600460003373ffffffffffffffffffffffffffffffffffffffff1673ffffffffffffffffffffffffffffffffffffffff16815260200190815260200160002060030154146112ac576001905082600460003373ffffffffffffffffffffffffffffffffffffffff1673ffffffffffffffffffffffffffffffffffffffff168152602001908152602001600020600301819055505b5b6000821461134b5781600460003373ffffffffffffffffffffffffffffffffffffffff1673ffffffffffffffffffffffffffffffffffffffff168152602001908152602001600020600401541461134a576001905081600460003373ffffffffffffffffffffffffffffffffffffffff1673ffffffffffffffffffffffffffffffffffffffff168152602001908152602001600020600401819055505b5b80156113d0577f28a9510eef92dc4b9a2c276d619cc4542f742b4d60296206f0accc035e9a1f1533600460003373ffffffffffffffffffffffffffffffffffffffff1673ffffffffffffffffffffffffffffffffffffffff1681526020019081526020016000206000016040516113c3929190613270565b60405180910390a161140b565b6040517f08c379a00000000000000000000000000000000000000000000000000000000081526004016114029061357a565b60405180910390fd5b5050505050565b6006602052816000526040600020818154811061142e57600080fd5b90600052602060002001600091509150505481565b600260009054906101000a900460ff1681565b6000600660008373ffffffffffffffffffffffffffffffffffffffff1673ffffffffffffffffffffffffffffffffffffffff168152602001908152602001600020805490509050919050565b60007f0000000000000000000000000000000000000000000000000000000000000000905090565b60606000600660008473ffffffffffffffffffffffffffffffffffffffff1673ffffffffffffffffffffffffffffffffffffffff16815260200190815260200160002080549050905060008167ffffffffffffffff811115611555577f4e487b7100000000000000000000000000000000000000000000000000000000600052604160045260246000fd5b60405190808252806020026020018201604052801561158e57816020015b61157b6128b5565b8152602001906001900390816115735790505b5090506000805b838110156117145742600582815481106115d8577f4e487b7100000000000000000000000000000000000000000000000000000000600052603260045260246000fd5b9060005260206000209060030201600201541015611701576005818154811061162a577f4e487b7100000000000000000000000000000000000000000000000000000000600052603260045260246000fd5b90600052602060002090600302016040518060600160405290816000820160009054906101000a900473ffffffffffffffffffffffffffffffffffffffff1673ffffffffffffffffffffffffffffffffffffffff1673ffffffffffffffffffffffffffffffffffffffff168152602001600182015481526020016002820154815250508383815181106116e6577f4e487b7100000000000000000000000000000000000000000000000000000000600052603260045260246000fd5b60200260200101819052506001826116fe919061370e565b91505b808061170c90613927565b915050611595565b50819350505050919050565b7f000000000000000000000000000000000000000000000000000000000000000081565b61174c6128ec565b60011515600460008473ffffffffffffffffffffffffffffffffffffffff1673ffffffffffffffffffffffffffffffffffffffff16815260200190815260200160002060050160019054906101000a900460ff161515146117e2576040517f08c379a00000000000000000000000000000000000000000000000000000000081526004016117d9906134fa565b60405180910390fd5b600460008373ffffffffffffffffffffffffffffffffffffffff1673ffffffffffffffffffffffffffffffffffffffff1681526020019081526020016000206040518060e001604052908160008201805461183c906138c4565b80601f0160208091040260200160405190810160405280929190818152602001828054611868906138c4565b80156118b55780601f1061188a576101008083540402835291602001916118b5565b820191906000526020600020905b81548152906001019060200180831161189857829003601f168201915b505050505081526020016001820180546118ce906138c4565b80601f01602080910402602001604051908101604052809291908181526020018280546118fa906138c4565b80156119475780601f1061191c57610100808354040283529160200191611947565b820191906000526020600020905b81548152906001019060200180831161192a57829003601f168201915b505050505081526020016002820154815260200160038201548152602001600482015481526020016005820160009054906101000a900460ff161515151581526020016005820160019054906101000a900460ff1615151515815250509050919050565b60011515600460003373ffffffffffffffffffffffffffffffffffffffff1673ffffffffffffffffffffffffffffffffffffffff16815260200190815260200160002060050160019054906101000a900460ff16151514611a41576040517f08c379a0000000000000000000000000000000000000000000000000000000008152600401611a389061341a565b60405180910390fd5b60001515600460003373ffffffffffffffffffffffffffffffffffffffff1673ffffffffffffffffffffffffffffffffffffffff16815260200190815260200160002060050160009054906101000a900460ff16151514611ad7576040517f08c379a0000000000000000000000000000000000000000000000000000000008152600401611ace9061359a565b60405180910390fd5b6001600460003373ffffffffffffffffffffffffffffffffffffffff1673ffffffffffffffffffffffffffffffffffffffff16815260200190815260200160002060050160006101000a81548160ff0219169083151502179055507f33dae4871e3969137acdf45d646dddde76928a5fd78a059ec185c2e3073f39ad33600460003373ffffffffffffffffffffffffffffffffffffffff1673ffffffffffffffffffffffffffffffffffffffff168152602001908152602001600020600001604051611ba4929190613270565b60405180910390a1565b60606000600660008473ffffffffffffffffffffffffffffffffffffffff1673ffffffffffffffffffffffffffffffffffffffff16815260200190815260200160002080549050905060008167ffffffffffffffff811115611c39577f4e487b7100000000000000000000000000000000000000000000000000000000600052604160045260246000fd5b604051908082528060200260200182016040528015611c7257816020015b611c5f6128b5565b815260200190600190039081611c575790505b5090506000805b83811015611df8574260058281548110611cbc577f4e487b7100000000000000000000000000000000000000000000000000000000600052603260045260246000fd5b9060005260206000209060030201600201541115611de55760058181548110611d0e577f4e487b7100000000000000000000000000000000000000000000000000000000600052603260045260246000fd5b90600052602060002090600302016040518060600160405290816000820160009054906101000a900473ffffffffffffffffffffffffffffffffffffffff1673ffffffffffffffffffffffffffffffffffffffff1673ffffffffffffffffffffffffffffffffffffffff16815260200160018201548152602001600282015481525050838381518110611dca577f4e487b7100000000000000000000000000000000000000000000000000000000600052603260045260246000fd5b6020026020010181905250600182611de2919061370e565b91505b8080611df090613927565b915050611c79565b50819350505050919050565b60038181548110611e1457600080fd5b906000526020600020016000915054906101000a900473ffffffffffffffffffffffffffffffffffffffff1681565b3373ffffffffffffffffffffffffffffffffffffffff168173ffffffffffffffffffffffffffffffffffffffff161415611eb2576040517f08c379a0000000000000000000000000000000000000000000000000000000008152600401611ea99061353a565b60405180910390fd5b600460008273ffffffffffffffffffffffffffffffffffffffff1673ffffffffffffffffffffffffffffffffffffffff168152602001908152602001600020600401543373ffffffffffffffffffffffffffffffffffffffff16311015611f4e576040517f08c379a0000000000000000000000000000000000000000000000000000000008152600401611f459061355a565b60405180910390fd5b600460008273ffffffffffffffffffffffffffffffffffffffff1673ffffffffffffffffffffffffffffffffffffffff168152602001908152602001600020600401543414611fd2576040517f08c379a0000000000000000000000000000000000000000000000000000000008152600401611fc99061351a565b60405180910390fd5b60011515600460008373ffffffffffffffffffffffffffffffffffffffff1673ffffffffffffffffffffffffffffffffffffffff16815260200190815260200160002060050160019054906101000a900460ff16151514612068576040517f08c379a000000000000000000000000000000000000000000000000000000000815260040161205f906134fa565b60405180910390fd5b60011515600460008373ffffffffffffffffffffffffffffffffffffffff1673ffffffffffffffffffffffffffffffffffffffff16815260200190815260200160002060050160009054906101000a900460ff161515146120fe576040517f08c379a00000000000000000000000000000000000000000000000000000000081526004016120f5906133fa565b60405180910390fd5b6000600660003373ffffffffffffffffffffffffffffffffffffffff1673ffffffffffffffffffffffffffffffffffffffff16815260200190815260200160002080548060200260200160405190810160405280929190818152602001828054801561218957602002820191906000526020600020905b815481526020019060010190808311612175575b50505050509050600080600090505b8251811015612368578373ffffffffffffffffffffffffffffffffffffffff1660058483815181106121f3577f4e487b7100000000000000000000000000000000000000000000000000000000600052603260045260246000fd5b602002602001015181548110612232577f4e487b7100000000000000000000000000000000000000000000000000000000600052603260045260246000fd5b906000526020600020906003020160000160009054906101000a900473ffffffffffffffffffffffffffffffffffffffff1673ffffffffffffffffffffffffffffffffffffffff161415612355574260058483815181106122bc577f4e487b7100000000000000000000000000000000000000000000000000000000600052603260045260246000fd5b6020026020010151815481106122fb577f4e487b7100000000000000000000000000000000000000000000000000000000600052603260045260246000fd5b90600052602060002090600302016002015410915081612350576040517f08c379a00000000000000000000000000000000000000000000000000000000081526004016123479061345a565b60405180910390fd5b612368565b808061236090613927565b915050612198565b3073ffffffffffffffffffffffffffffffffffffffff166108fc349081150290604051600060405180830381858888f193505050501580156123ae573d6000803e3d6000fd5b50600062015180600460008773ffffffffffffffffffffffffffffffffffffffff1673ffffffffffffffffffffffffffffffffffffffff168152602001908152602001600020600301546124029190613795565b4261240d919061370e565b9050821561253a57426005858481518110612451577f4e487b7100000000000000000000000000000000000000000000000000000000600052603260045260246000fd5b602002602001015181548110612490577f4e487b7100000000000000000000000000000000000000000000000000000000600052603260045260246000fd5b9060005260206000209060030201600101819055508060058584815181106124e1577f4e487b7100000000000000000000000000000000000000000000000000000000600052603260045260246000fd5b602002602001015181548110612520577f4e487b7100000000000000000000000000000000000000000000000000000000600052603260045260246000fd5b90600052602060002090600302016002018190555061266b565b600560405180606001604052808773ffffffffffffffffffffffffffffffffffffffff16815260200142815260200183815250908060018154018082558091505060019003906000526020600020906003020160009091909190915060008201518160000160006101000a81548173ffffffffffffffffffffffffffffffffffffffff021916908373ffffffffffffffffffffffffffffffffffffffff16021790555060208201518160010155604082015181600201555050600660003373ffffffffffffffffffffffffffffffffffffffff1673ffffffffffffffffffffffffffffffffffffffff168152602001908152602001600020600160058054905061264491906137ef565b90806001815401808255809150506001900390600052602060002001600090919091909150555b6000606460008054906101000a900460ff1660ff163461268b9190613795565b6126959190613764565b905080600460008873ffffffffffffffffffffffffffffffffffffffff1673ffffffffffffffffffffffffffffffffffffffff168152602001908152602001600020600401546126e591906137ef565b600460008873ffffffffffffffffffffffffffffffffffffffff1673ffffffffffffffffffffffffffffffffffffffff1681526020019081526020016000206002016000828254612736919061370e565b92505081905550806001600082825461274f919061370e565b925050819055507f51bb78b71c6aba7c377de6374e250ff83d59fc71c6a8b28f3aaac77c33b6dceb33874285600460008c73ffffffffffffffffffffffffffffffffffffffff1673ffffffffffffffffffffffffffffffffffffffff168152602001908152602001600020600401546040516127cf95949392919061321d565b60405180910390a17fc5a2b7ad6439179b1edea47d8a4bc00b2c5270a1c741c00fab7be4012caa7d0a33826040516128089291906132a0565b60405180910390a1505050505050565b60015481565b60008054906101000a900460ff1681565b82805461283b906138c4565b90600052602060002090601f01602090048101928261285d57600085556128a4565b82601f1061287657805160ff19168380011785556128a4565b828001600101855582156128a4579182015b828111156128a3578251825591602001919060010190612888565b5b5090506128b1919061292d565b5090565b6040518060600160405280600073ffffffffffffffffffffffffffffffffffffffff16815260200160008152602001600081525090565b6040518060e0016040528060608152602001606081526020016000815260200160008152602001600081526020016000151581526020016000151581525090565b5b8082111561294657600081600090555060010161292e565b5090565b600061295d61295884613657565b613632565b90508281526020810184848401111561297557600080fd5b612980848285613882565b509392505050565b60008135905061299781613ddd565b92915050565b6000813590506129ac81613df4565b92915050565b600082601f8301126129c357600080fd5b81356129d384826020860161294a565b91505092915050565b6000813590506129eb81613e0b565b92915050565b600081359050612a0081613e22565b92915050565b600060208284031215612a1857600080fd5b6000612a2684828501612988565b91505092915050565b60008060408385031215612a4257600080fd5b6000612a5085828601612988565b9250506020612a61858286016129dc565b9150509250929050565b60008060008060808587031215612a8157600080fd5b600085013567ffffffffffffffff811115612a9b57600080fd5b612aa7878288016129b2565b945050602085013567ffffffffffffffff811115612ac457600080fd5b612ad0878288016129b2565b9350506040612ae1878288016129dc565b9250506060612af28782880161299d565b91505092959194509250565b60008060008060808587031215612b1457600080fd5b600085013567ffffffffffffffff811115612b2e57600080fd5b612b3a878288016129b2565b945050602085013567ffffffffffffffff811115612b5757600080fd5b612b63878288016129b2565b9350506040612b74878288016129dc565b9250506060612b85878288016129dc565b91505092959194509250565b600060208284031215612ba357600080fd5b6000612bb1848285016129dc565b91505092915050565b600060208284031215612bcc57600080fd5b6000612bda848285016129f1565b91505092915050565b6000612bef8383613150565b60608301905092915050565b612c0481613823565b82525050565b612c1381613823565b82525050565b6000612c24826136ad565b612c2e81856136d0565b9350612c3983613688565b8060005b83811015612c6a578151612c518882612be3565b9750612c5c836136c3565b925050600181019050612c3d565b5085935050505092915050565b612c8081613835565b82525050565b612c8f81613835565b82525050565b6000612ca0826136b8565b612caa81856136e1565b9350612cba818560208601613891565b612cc381613a2c565b840191505092915050565b6000612cd9826136b8565b612ce381856136f2565b9350612cf3818560208601613891565b612cfc81613a2c565b840191505092915050565b6000612d12826136b8565b612d1c8185613703565b9350612d2c818560208601613891565b80840191505092915050565b60008154612d45816138c4565b612d4f81866136f2565b94506001821660008114612d6a5760018114612d7c57612daf565b60ff1983168652602086019350612daf565b612d8585613698565b60005b83811015612da757815481890152600182019150602081019050612d88565b808801955050505b50505092915050565b60008154612dc5816138c4565b612dcf8186613703565b94506001821660008114612dea5760018114612dfb57612e2e565b60ff19831686528186019350612e2e565b612e0485613698565b60005b83811015612e2657815481890152600182019150602081019050612e07565b838801955050505b50505092915050565b6000612e44601c836136f2565b9150612e4f82613a3d565b602082019050919050565b6000612e67602b836136f2565b9150612e7282613a66565b604082019050919050565b6000612e8a601e836136f2565b9150612e9582613ab5565b602082019050919050565b6000612ead6024836136f2565b9150612eb882613ade565b604082019050919050565b6000612ed06016836136f2565b9150612edb82613b2d565b602082019050919050565b6000612ef36022836136f2565b9150612efe82613b56565b604082019050919050565b6000612f166012836136f2565b9150612f2182613ba5565b602082019050919050565b6000612f396023836136f2565b9150612f4482613bce565b604082019050919050565b6000612f5c600b836136f2565b9150612f6782613c1d565b602082019050919050565b6000612f7f600d836136f2565b9150612f8a82613c46565b602082019050919050565b6000612fa26017836136f2565b9150612fad82613c6f565b602082019050919050565b6000612fc56015836136f2565b9150612fd082613c98565b602082019050919050565b6000612fe86024836136f2565b9150612ff382613cc1565b604082019050919050565b600061300b6014836136f2565b915061301682613d10565b602082019050919050565b600061302e600083613703565b915061303982613d39565b600082019050919050565b6000613051600f836136f2565b915061305c82613d3c565b602082019050919050565b60006130746021836136f2565b915061307f82613d65565b604082019050919050565b6000613097600f836136f2565b91506130a282613db4565b602082019050919050565b600060e08301600083015184820360008601526130ca8282612c95565b915050602083015184820360208601526130e48282612c95565b91505060408301516130f96040860182613192565b50606083015161310c6060860182613192565b50608083015161311f6080860182613192565b5060a083015161313260a0860182612c77565b5060c083015161314560c0860182612c77565b508091505092915050565b6060820160008201516131666000850182612bfb565b5060208201516131796020850182613192565b50604082015161318c6040850182613192565b50505050565b61319b8161386b565b82525050565b6131aa8161386b565b82525050565b6131b981613875565b82525050565b60006131cb8284612d07565b915081905092915050565b60006131e28284612db8565b915081905092915050565b60006131f882613021565b9150819050919050565b60006020820190506132176000830184612c0a565b92915050565b600060a0820190506132326000830188612c0a565b61323f6020830187612c0a565b61324c60408301866131a1565b61325960608301856131a1565b61326660808301846131a1565b9695505050505050565b60006040820190506132856000830185612c0a565b81810360208301526132978184612d38565b90509392505050565b60006040820190506132b56000830185612c0a565b6132c260208301846131a1565b9392505050565b60006060820190506132de6000830186612c0a565b6132eb60208301856131a1565b6132f860408301846131a1565b949350505050565b6000602082019050818103600083015261331a8184612c19565b905092915050565b60006020820190506133376000830184612c86565b92915050565b600060e0820190508181036000830152613357818a612cce565b9050818103602083015261336b8189612cce565b905061337a60408301886131a1565b61338760608301876131a1565b61339460808301866131a1565b6133a160a0830185612c86565b6133ae60c0830184612c86565b98975050505050505050565b600060208201905081810360008301526133d381612e37565b9050919050565b600060208201905081810360008301526133f381612e5a565b9050919050565b6000602082019050818103600083015261341381612e7d565b9050919050565b6000602082019050818103600083015261343381612ea0565b9050919050565b6000602082019050818103600083015261345381612ec3565b9050919050565b6000602082019050818103600083015261347381612ee6565b9050919050565b6000602082019050818103600083015261349381612f09565b9050919050565b600060208201905081810360008301526134b381612f2c565b9050919050565b600060208201905081810360008301526134d381612f4f565b9050919050565b600060208201905081810360008301526134f381612f72565b9050919050565b6000602082019050818103600083015261351381612f95565b9050919050565b6000602082019050818103600083015261353381612fb8565b9050919050565b6000602082019050818103600083015261355381612fdb565b9050919050565b6000602082019050818103600083015261357381612ffe565b9050919050565b6000602082019050818103600083015261359381613044565b9050919050565b600060208201905081810360008301526135b381613067565b9050919050565b600060208201905081810360008301526135d38161308a565b9050919050565b600060208201905081810360008301526135f481846130ad565b905092915050565b600060208201905061361160008301846131a1565b92915050565b600060208201905061362c60008301846131b0565b92915050565b600061363c61364d565b905061364882826138f6565b919050565b6000604051905090565b600067ffffffffffffffff821115613672576136716139fd565b5b61367b82613a2c565b9050602081019050919050565b6000819050602082019050919050565b60008190508160005260206000209050919050565b600081519050919050565b600081519050919050565b6000602082019050919050565b600082825260208201905092915050565b600082825260208201905092915050565b600082825260208201905092915050565b600081905092915050565b60006137198261386b565b91506137248361386b565b9250827fffffffffffffffffffffffffffffffffffffffffffffffffffffffffffffffff0382111561375957613758613970565b5b828201905092915050565b600061376f8261386b565b915061377a8361386b565b92508261378a5761378961399f565b5b828204905092915050565b60006137a08261386b565b91506137ab8361386b565b9250817fffffffffffffffffffffffffffffffffffffffffffffffffffffffffffffffff04831182151516156137e4576137e3613970565b5b828202905092915050565b60006137fa8261386b565b91506138058361386b565b92508282101561381857613817613970565b5b828203905092915050565b600061382e8261384b565b9050919050565b60008115159050919050565b6000819050919050565b600073ffffffffffffffffffffffffffffffffffffffff82169050919050565b6000819050919050565b600060ff82169050919050565b82818337600083830152505050565b60005b838110156138af578082015181840152602081019050613894565b838111156138be576000848401525b50505050565b600060028204905060018216806138dc57607f821691505b602082108114156138f0576138ef6139ce565b5b50919050565b6138ff82613a2c565b810181811067ffffffffffffffff8211171561391e5761391d6139fd565b5b80604052505050565b60006139328261386b565b91507fffffffffffffffffffffffffffffffffffffffffffffffffffffffffffffffff82141561396557613964613970565b5b600182019050919050565b7f4e487b7100000000000000000000000000000000000000000000000000000000600052601160045260246000fd5b7f4e487b7100000000000000000000000000000000000000000000000000000000600052601260045260246000fd5b7f4e487b7100000000000000000000000000000000000000000000000000000000600052602260045260246000fd5b7f4e487b7100000000000000000000000000000000000000000000000000000000600052604160045260246000fd5b6000601f19601f8301169050919050565b7f596f75722063726561746f7220646f6573206e6f742065786973747300000000600082015250565b7f596f75722063726561746f72206163636f756e7420697320616c72656164792060008201527f6465616374697661746564000000000000000000000000000000000000000000602082015250565b7f43726561746f72206163636f756e742069732064656163746976617465640000600082015250565b7f596f75722063726561746f72206163636f756e7420646f6573206e6f7420657860008201527f6973747300000000000000000000000000000000000000000000000000000000602082015250565b7f43726561746f7220616c72656164792065786973747300000000000000000000600082015250565b7f416c7265616479207375627363726962656420746f207468697320637265617460008201527f6f72000000000000000000000000000000000000000000000000000000000000602082015250565b7f496e73756666696369656e742066756e64730000000000000000000000000000600082015250565b7f596f75722063726561746f72206163636f756e7420697320646561637469766160008201527f7465640000000000000000000000000000000000000000000000000000000000602082015250565b7f416c726561647920736574000000000000000000000000000000000000000000600082015250565b7f4d6f7265207468616e2035302500000000000000000000000000000000000000600082015250565b7f43726561746f7220646f6573206e6f7420657869737473000000000000000000600082015250565b7f53656e6420537562736372697074696f6e206665650000000000000000000000600082015250565b7f4e6f206e65656420746f2073756273637269626520746f206f776e20636f6e7460008201527f656e742100000000000000000000000000000000000000000000000000000000602082015250565b7f496e73756666696369656e742042616c616e6365000000000000000000000000600082015250565b50565b7f4e6f7468696e6720757064617465640000000000000000000000000000000000600082015250565b7f796f7572206163636f756e7420697320416c726561647920616374697661746560008201527f6400000000000000000000000000000000000000000000000000000000000000602082015250565b7f5769746864726177204c6f636b65640000000000000000000000000000000000600082015250565b613de681613823565b8114613df157600080fd5b50565b613dfd81613841565b8114613e0857600080fd5b50565b613e148161386b565b8114613e1f57600080fd5b50565b613e2b81613875565b8114613e3657600080fd5b5056fea26469706673582212207494b9c200923d3a9678d58f9a8150f826de5953da3b4a126b408b3671cf79bd64736f6c63430008040033",
  "linkReferences": {},
  "deployedLinkReferences": {}
}