{
  "_format": "hh-sol-artifact-1",
  "contractName": "Fanbuidl",
  "sourceName": "contracts/Fanbuidl.sol",
  "abi": [
    {
      "inputs": [],
      "stateMutability": "nonpayable",
      "type": "constructor"
    },
    {
      "anonymous": false,
      "inputs": [
        {
          "indexed": false,
          "internalType": "address",
          "name": "",
          "type": "address"
        },
        {
          "indexed": false,
          "internalType": "string",
          "name": "",
          "type": "string"
        }
      ],
      "name": "creatorActivated",
      "type": "event"
    },
    {
      "anonymous": false,
      "inputs": [
        {
          "indexed": false,
          "internalType": "address",
          "name": "",
          "type": "address"
        },
        {
          "indexed": false,
          "internalType": "string",
          "name": "",
          "type": "string"
        }
      ],
      "name": "creatorCreated",
      "type": "event"
    },
    {
      "anonymous": false,
      "inputs": [
        {
          "indexed": false,
          "internalType": "address",
          "name": "",
          "type": "address"
        },
        {
          "indexed": false,
          "internalType": "string",
          "name": "",
          "type": "string"
        }
      ],
      "name": "creatorDeactivated",
      "type": "event"
    },
    {
      "anonymous": false,
      "inputs": [
        {
          "indexed": false,
          "internalType": "address",
          "name": "",
          "type": "address"
        },
        {
          "indexed": false,
          "internalType": "string",
          "name": "",
          "type": "string"
        }
      ],
      "name": "creatorUpdated",
      "type": "event"
    },
    {
      "anonymous": false,
      "inputs": [
        {
          "indexed": false,
          "internalType": "address",
          "name": "",
          "type": "address"
        },
        {
          "indexed": false,
          "internalType": "uint256",
          "name": "",
          "type": "uint256"
        }
      ],
      "name": "feeCollected",
      "type": "event"
    },
    {
      "anonymous": false,
      "inputs": [
        {
          "indexed": false,
          "internalType": "address",
          "name": "",
          "type": "address"
        },
        {
          "indexed": false,
          "internalType": "uint256",
          "name": "",
          "type": "uint256"
        }
      ],
      "name": "fundsReceived",
      "type": "event"
    },
    {
      "anonymous": false,
      "inputs": [
        {
          "indexed": false,
          "internalType": "address",
          "name": "",
          "type": "address"
        },
        {
          "indexed": false,
          "internalType": "address",
          "name": "",
          "type": "address"
        },
        {
          "indexed": false,
          "internalType": "uint256",
          "name": "",
          "type": "uint256"
        },
        {
          "indexed": false,
          "internalType": "uint256",
          "name": "",
          "type": "uint256"
        },
        {
          "indexed": false,
          "internalType": "uint256",
          "name": "",
          "type": "uint256"
        }
      ],
      "name": "gotSubscribed",
      "type": "event"
    },
    {
      "stateMutability": "payable",
      "type": "fallback"
    },
    {
      "inputs": [],
      "name": "activateCreator",
      "outputs": [],
      "stateMutability": "nonpayable",
      "type": "function"
    },
    {
      "inputs": [],
      "name": "collectedFee",
      "outputs": [
        {
          "internalType": "uint256",
          "name": "",
          "type": "uint256"
        }
      ],
      "stateMutability": "view",
      "type": "function"
    },
    {
      "inputs": [
        {
          "internalType": "string",
          "name": "name",
          "type": "string"
        },
        {
          "internalType": "string",
          "name": "desc",
          "type": "string"
        },
        {
          "internalType": "uint256",
          "name": "subdays",
          "type": "uint256"
        },
        {
          "internalType": "uint256",
          "name": "fee",
          "type": "uint256"
        }
      ],
      "name": "createCreator",
      "outputs": [],
      "stateMutability": "nonpayable",
      "type": "function"
    },
    {
      "inputs": [],
      "name": "creatorFee",
      "outputs": [
        {
          "internalType": "uint8",
          "name": "",
          "type": "uint8"
        }
      ],
      "stateMutability": "view",
      "type": "function"
    },
    {
      "inputs": [
        {
          "internalType": "address",
          "name": "",
          "type": "address"
        }
      ],
      "name": "creatorList",
      "outputs": [
        {
          "internalType": "string",
          "name": "accountName",
          "type": "string"
        },
        {
          "internalType": "string",
          "name": "desription",
          "type": "string"
        },
        {
          "internalType": "uint256",
          "name": "balance",
          "type": "uint256"
        },
        {
          "internalType": "uint256",
          "name": "subDays",
          "type": "uint256"
        },
        {
          "internalType": "uint256",
          "name": "subFee",
          "type": "uint256"
        },
        {
          "internalType": "bool",
          "name": "active",
          "type": "bool"
        },
        {
          "internalType": "bool",
          "name": "check",
          "type": "bool"
        }
      ],
      "stateMutability": "view",
      "type": "function"
    },
    {
      "inputs": [
        {
          "internalType": "uint256",
          "name": "",
          "type": "uint256"
        }
      ],
      "name": "creators",
      "outputs": [
        {
          "internalType": "address",
          "name": "",
          "type": "address"
        }
      ],
      "stateMutability": "view",
      "type": "function"
    },
    {
      "inputs": [],
      "name": "deactivateCreator",
      "outputs": [],
      "stateMutability": "nonpayable",
      "type": "function"
    },
    {
      "inputs": [
        {
          "internalType": "address",
          "name": "subscriber",
          "type": "address"
        }
      ],
      "name": "getActiveSubscriptions",
      "outputs": [
        {
          "components": [
            {
              "internalType": "address",
              "name": "creator",
              "type": "address"
            },
            {
              "internalType": "uint256",
              "name": "startDate",
              "type": "uint256"
            },
            {
              "internalType": "uint256",
              "name": "endDate",
              "type": "uint256"
            }
          ],
          "internalType": "struct Fanbuidl.Subcscription[]",
          "name": "",
          "type": "tuple[]"
        }
      ],
      "stateMutability": "view",
      "type": "function"
    },
    {
      "inputs": [],
      "name": "getBalance",
      "outputs": [
        {
          "internalType": "uint256",
          "name": "",
          "type": "uint256"
        }
      ],
      "stateMutability": "view",
      "type": "function"
    },
    {
      "inputs": [
        {
          "internalType": "address",
          "name": "ad",
          "type": "address"
        }
      ],
      "name": "getCreator",
      "outputs": [
        {
          "components": [
            {
              "internalType": "string",
              "name": "accountName",
              "type": "string"
            },
            {
              "internalType": "string",
              "name": "desription",
              "type": "string"
            },
            {
              "internalType": "uint256",
              "name": "balance",
              "type": "uint256"
            },
            {
              "internalType": "uint256",
              "name": "subDays",
              "type": "uint256"
            },
            {
              "internalType": "uint256",
              "name": "subFee",
              "type": "uint256"
            },
            {
              "internalType": "bool",
              "name": "active",
              "type": "bool"
            },
            {
              "internalType": "bool",
              "name": "check",
              "type": "bool"
            }
          ],
          "internalType": "struct Fanbuidl.Creator",
          "name": "cr",
          "type": "tuple"
        }
      ],
      "stateMutability": "view",
      "type": "function"
    },
    {
      "inputs": [
        {
          "internalType": "address",
          "name": "subscriber",
          "type": "address"
        }
      ],
      "name": "getExpiredSubscriptions",
      "outputs": [
        {
          "components": [
            {
              "internalType": "address",
              "name": "creator",
              "type": "address"
            },
            {
              "internalType": "uint256",
              "name": "startDate",
              "type": "uint256"
            },
            {
              "internalType": "uint256",
              "name": "endDate",
              "type": "uint256"
            }
          ],
          "internalType": "struct Fanbuidl.Subcscription[]",
          "name": "",
          "type": "tuple[]"
        }
      ],
      "stateMutability": "view",
      "type": "function"
    },
    {
      "inputs": [],
      "name": "getOwner",
      "outputs": [
        {
          "internalType": "address",
          "name": "",
          "type": "address"
        }
      ],
      "stateMutability": "view",
      "type": "function"
    },
    {
      "inputs": [],
      "name": "owner",
      "outputs": [
        {
          "internalType": "address",
          "name": "",
          "type": "address"
        }
      ],
      "stateMutability": "view",
      "type": "function"
    },
    {
      "inputs": [
        {
          "internalType": "uint8",
          "name": "_fee",
          "type": "uint8"
        }
      ],
      "name": "setCreatorFee",
      "outputs": [],
      "stateMutability": "nonpayable",
      "type": "function"
    },
    {
      "inputs": [
        {
          "internalType": "address",
          "name": "",
          "type": "address"
        },
        {
          "internalType": "uint256",
          "name": "",
          "type": "uint256"
        }
      ],
      "name": "subList",
      "outputs": [
        {
          "internalType": "uint256",
          "name": "",
          "type": "uint256"
        }
      ],
      "stateMutability": "view",
      "type": "function"
    },
    {
      "inputs": [
        {
          "internalType": "address",
          "name": "creator",
          "type": "address"
        }
      ],
      "name": "subscribeMe",
      "outputs": [],
      "stateMutability": "payable",
      "type": "function"
    },
    {
      "inputs": [
        {
          "internalType": "uint256",
          "name": "",
          "type": "uint256"
        }
      ],
      "name": "subscriptions",
      "outputs": [
        {
          "internalType": "address",
          "name": "creator",
          "type": "address"
        },
        {
          "internalType": "uint256",
          "name": "startDate",
          "type": "uint256"
        },
        {
          "internalType": "uint256",
          "name": "endDate",
          "type": "uint256"
        }
      ],
      "stateMutability": "view",
      "type": "function"
    },
    {
      "inputs": [
        {
          "internalType": "string",
          "name": "_name",
          "type": "string"
        },
        {
          "internalType": "string",
          "name": "_desc",
          "type": "string"
        },
        {
          "internalType": "uint256",
          "name": "subdays",
          "type": "uint256"
        },
        {
          "internalType": "int256",
          "name": "_subFee",
          "type": "int256"
        }
      ],
      "name": "updateCreator",
      "outputs": [],
      "stateMutability": "nonpayable",
      "type": "function"
    },
    {
      "inputs": [
        {
          "internalType": "uint256",
          "name": "_amount",
          "type": "uint256"
        }
      ],
      "name": "withdrawFunds",
      "outputs": [],
      "stateMutability": "payable",
      "type": "function"
    },
    {
      "inputs": [],
      "name": "withdrawLock",
      "outputs": [
        {
          "internalType": "bool",
          "name": "",
          "type": "bool"
        }
      ],
      "stateMutability": "view",
      "type": "function"
    },
    {
      "stateMutability": "payable",
      "type": "receive"
    }
  ],
  "bytecode": "0x60a060405234801561001057600080fd5b503373ffffffffffffffffffffffffffffffffffffffff1660808173ffffffffffffffffffffffffffffffffffffffff1660601b81525050600a6000806101000a81548160ff021916908360ff16021790555060805160601c613ddb61009d600039600081816108740152818161098101528181610cac01528181611412015261168e0152613ddb6000f3fe6080604052600436106101235760003560e01c8063893d20e8116100a0578063c70eba2a11610064578063c70eba2a1461040f578063cd53d08e1461044c578063cdb447fe14610489578063e811f50a146104a5578063e88958dc146104d057610163565b8063893d20e81461032857806389932d6a146103535780638da5cb5b14610390578063a0210309146103bb578063c485def4146103f857610163565b80632370b8a7116100e75780632370b8a71461022f5780632d5bbf601461025857806335b25d3414610297578063448956a6146102c05780635c388ca6146102fd57610163565b8063115b15701461016557806312065fe0146101a85780631421b7d2146101d3578063155dd5ee146101ea57806320440a941461020657610163565b36610163577f445ab35117cf4b171680957d35f1a089ded7f4608bdef1797b266df9d930f28e333460405161015992919061320c565b60405180910390a1005b005b34801561017157600080fd5b5061018c60048036038101906101879190612972565b6104fb565b60405161019f97969594939291906132a9565b60405180910390f35b3480156101b457600080fd5b506101bd610667565b6040516101ca9190613568565b60405180910390f35b3480156101df57600080fd5b506101e861066f565b005b61020460048036038101906101ff9190612afd565b610872565b005b34801561021257600080fd5b5061022d60048036038101906102289190612a6a565b610a1d565b005b34801561023b57600080fd5b5061025660048036038101906102519190612b26565b610caa565b005b34801561026457600080fd5b5061027f600480360381019061027a9190612afd565b610dbb565b60405161028e93929190613235565b60405180910390f35b3480156102a357600080fd5b506102be60048036038101906102b991906129d7565b610e15565b005b3480156102cc57600080fd5b506102e760048036038101906102e2919061299b565b6113ca565b6040516102f49190613568565b60405180910390f35b34801561030957600080fd5b506103126113fb565b60405161031f919061328e565b60405180910390f35b34801561033457600080fd5b5061033d61140e565b60405161034a919061316e565b60405180910390f35b34801561035f57600080fd5b5061037a60048036038101906103759190612972565b611436565b604051610387919061326c565b60405180910390f35b34801561039c57600080fd5b506103a561168c565b6040516103b2919061316e565b60405180910390f35b3480156103c757600080fd5b506103e260048036038101906103dd9190612972565b6116b0565b6040516103ef9190613546565b60405180910390f35b34801561040457600080fd5b5061040d611917565b005b34801561041b57600080fd5b5061043660048036038101906104319190612972565b611b1a565b604051610443919061326c565b60405180910390f35b34801561045857600080fd5b50610473600480360381019061046e9190612afd565b611d70565b604051610480919061316e565b60405180910390f35b6104a3600480360381019061049e9190612972565b611daf565b005b3480156104b157600080fd5b506104ba612784565b6040516104c79190613568565b60405180910390f35b3480156104dc57600080fd5b506104e561278a565b6040516104f29190613583565b60405180910390f35b600460205280600052604060002060009150905080600001805461051e90613830565b80601f016020809104026020016040519081016040528092919081815260200182805461054a90613830565b80156105975780601f1061056c57610100808354040283529160200191610597565b820191906000526020600020905b81548152906001019060200180831161057a57829003601f168201915b5050505050908060010180546105ac90613830565b80601f01602080910402602001604051908101604052809291908181526020018280546105d890613830565b80156106255780601f106105fa57610100808354040283529160200191610625565b820191906000526020600020905b81548152906001019060200180831161060857829003601f168201915b5050505050908060020154908060030154908060040154908060050160009054906101000a900460ff16908060050160019054906101000a900460ff16905087565b600047905090565b60011515600460003373ffffffffffffffffffffffffffffffffffffffff1673ffffffffffffffffffffffffffffffffffffffff16815260200190815260200160002060050160019054906101000a900460ff16151514610705576040517f08c379a00000000000000000000000000000000000000000000000000000000081526004016106fc90613326565b60405180910390fd5b60011515600460003373ffffffffffffffffffffffffffffffffffffffff1673ffffffffffffffffffffffffffffffffffffffff16815260200190815260200160002060050160009054906101000a900460ff1615151461079b576040517f08c379a000000000000000000000000000000000000000000000000000000000815260040161079290613346565b60405180910390fd5b6000600460003373ffffffffffffffffffffffffffffffffffffffff1673ffffffffffffffffffffffffffffffffffffffff16815260200190815260200160002060050160006101000a81548160ff0219169083151502179055507fbb3ee8ebf1986e1d606f357d66cf35186b8d67b737fbdf816befea32a3fd462f33600460003373ffffffffffffffffffffffffffffffffffffffff1673ffffffffffffffffffffffffffffffffffffffff1681526020019081526020016000206000016040516108689291906131dc565b60405180910390a1565b7f000000000000000000000000000000000000000000000000000000000000000073ffffffffffffffffffffffffffffffffffffffff163373ffffffffffffffffffffffffffffffffffffffff16146108ca57600080fd5b600154811061090e576040517f08c379a0000000000000000000000000000000000000000000000000000000008152600401610905906133e6565b60405180910390fd5b60001515600260009054906101000a900460ff16151514610964576040517f08c379a000000000000000000000000000000000000000000000000000000000815260040161095b90613526565b60405180910390fd5b6001600260006101000a81548160ff0219169083151502179055507f000000000000000000000000000000000000000000000000000000000000000073ffffffffffffffffffffffffffffffffffffffff166108fc829081150290604051600060405180830381858888f193505050501580156109e5573d6000803e3d6000fd5b5080600160008282546109f8919061375b565b925050819055506000600260006101000a81548160ff02191690831515021790555050565b60001515600460003373ffffffffffffffffffffffffffffffffffffffff1673ffffffffffffffffffffffffffffffffffffffff16815260200190815260200160002060050160019054906101000a900460ff16151514610ab3576040517f08c379a0000000000000000000000000000000000000000000000000000000008152600401610aaa906133a6565b60405180910390fd5b6003339080600181540180825580915050600190039060005260206000200160009091909190916101000a81548173ffffffffffffffffffffffffffffffffffffffff021916908373ffffffffffffffffffffffffffffffffffffffff1602179055506040518060e001604052808581526020018481526020016000815260200183815260200182815260200160011515815260200160011515815250600460003373ffffffffffffffffffffffffffffffffffffffff1673ffffffffffffffffffffffffffffffffffffffff1681526020019081526020016000206000820151816000019080519060200190610bab92919061279b565b506020820151816001019080519060200190610bc892919061279b565b5060408201518160020155606082015181600301556080820151816004015560a08201518160050160006101000a81548160ff02191690831515021790555060c08201518160050160016101000a81548160ff0219169083151502179055509050507fbe655ea337469721a58ab6c884d1c0a7c4223c93ae3deea43234f5b36aacd55633600460003373ffffffffffffffffffffffffffffffffffffffff1673ffffffffffffffffffffffffffffffffffffffff168152602001908152602001600020600001604051610c9c9291906131dc565b60405180910390a150505050565b7f000000000000000000000000000000000000000000000000000000000000000073ffffffffffffffffffffffffffffffffffffffff163373ffffffffffffffffffffffffffffffffffffffff1614610d0257600080fd5b8060ff1660008054906101000a900460ff1660ff161415610d58576040517f08c379a0000000000000000000000000000000000000000000000000000000008152600401610d4f90613426565b60405180910390fd5b60328160ff1610610d9e576040517f08c379a0000000000000000000000000000000000000000000000000000000008152600401610d9590613446565b60405180910390fd5b806000806101000a81548160ff021916908360ff16021790555050565b60058181548110610dcb57600080fd5b90600052602060002090600302016000915090508060000160009054906101000a900473ffffffffffffffffffffffffffffffffffffffff16908060010154908060020154905083565b60011515600460003373ffffffffffffffffffffffffffffffffffffffff1673ffffffffffffffffffffffffffffffffffffffff16815260200190815260200160002060050160019054906101000a900460ff16151514610eab576040517f08c379a0000000000000000000000000000000000000000000000000000000008152600401610ea290613466565b60405180910390fd5b60011515600460003373ffffffffffffffffffffffffffffffffffffffff1673ffffffffffffffffffffffffffffffffffffffff16815260200190815260200160002060050160009054906101000a900460ff16151514610f41576040517f08c379a0000000000000000000000000000000000000000000000000000000008152600401610f3890613406565b60405180910390fd5b6000604051602001610f5290613159565b6040516020818303038152906040528051906020012085604051602001610f79919061312b565b60405160208183030381529060405280519060200120146110855784604051602001610fa5919061312b565b60405160208183030381529060405280519060200120600460003373ffffffffffffffffffffffffffffffffffffffff1673ffffffffffffffffffffffffffffffffffffffff16815260200190815260200160002060000160405160200161100d9190613142565b6040516020818303038152906040528051906020012014611084576001905084600460003373ffffffffffffffffffffffffffffffffffffffff1673ffffffffffffffffffffffffffffffffffffffff168152602001908152602001600020600001908051906020019061108292919061279b565b505b5b60405160200161109490613159565b60405160208183030381529060405280519060200120846040516020016110bb919061312b565b60405160208183030381529060405280519060200120146111c757836040516020016110e7919061312b565b60405160208183030381529060405280519060200120600460003373ffffffffffffffffffffffffffffffffffffffff1673ffffffffffffffffffffffffffffffffffffffff16815260200190815260200160002060010160405160200161114f9190613142565b60405160208183030381529060405280519060200120146111c6576001905083600460003373ffffffffffffffffffffffffffffffffffffffff1673ffffffffffffffffffffffffffffffffffffffff16815260200190815260200160002060010190805190602001906111c492919061279b565b505b5b600083146112655782600460003373ffffffffffffffffffffffffffffffffffffffff1673ffffffffffffffffffffffffffffffffffffffff1681526020019081526020016000206003015414611264576001905082600460003373ffffffffffffffffffffffffffffffffffffffff1673ffffffffffffffffffffffffffffffffffffffff168152602001908152602001600020600301819055505b5b600082146113035781600460003373ffffffffffffffffffffffffffffffffffffffff1673ffffffffffffffffffffffffffffffffffffffff1681526020019081526020016000206004015414611302576001905081600460003373ffffffffffffffffffffffffffffffffffffffff1673ffffffffffffffffffffffffffffffffffffffff168152602001908152602001600020600401819055505b5b8015611388577f28a9510eef92dc4b9a2c276d619cc4542f742b4d60296206f0accc035e9a1f1533600460003373ffffffffffffffffffffffffffffffffffffffff1673ffffffffffffffffffffffffffffffffffffffff16815260200190815260200160002060000160405161137b9291906131dc565b60405180910390a16113c3565b6040517f08c379a00000000000000000000000000000000000000000000000000000000081526004016113ba906134e6565b60405180910390fd5b5050505050565b600660205281600052604060002081815481106113e657600080fd5b90600052602060002001600091509150505481565b600260009054906101000a900460ff1681565b60007f0000000000000000000000000000000000000000000000000000000000000000905090565b60606000600660008473ffffffffffffffffffffffffffffffffffffffff1673ffffffffffffffffffffffffffffffffffffffff16815260200190815260200160002080549050905060008167ffffffffffffffff8111156114c1577f4e487b7100000000000000000000000000000000000000000000000000000000600052604160045260246000fd5b6040519080825280602002602001820160405280156114fa57816020015b6114e7612821565b8152602001906001900390816114df5790505b5090506000805b83811015611680574260058281548110611544577f4e487b7100000000000000000000000000000000000000000000000000000000600052603260045260246000fd5b906000526020600020906003020160020154101561166d5760058181548110611596577f4e487b7100000000000000000000000000000000000000000000000000000000600052603260045260246000fd5b90600052602060002090600302016040518060600160405290816000820160009054906101000a900473ffffffffffffffffffffffffffffffffffffffff1673ffffffffffffffffffffffffffffffffffffffff1673ffffffffffffffffffffffffffffffffffffffff16815260200160018201548152602001600282015481525050838381518110611652577f4e487b7100000000000000000000000000000000000000000000000000000000600052603260045260246000fd5b602002602001018190525060018261166a919061367a565b91505b808061167890613893565b915050611501565b50819350505050919050565b7f000000000000000000000000000000000000000000000000000000000000000081565b6116b8612858565b60011515600460008473ffffffffffffffffffffffffffffffffffffffff1673ffffffffffffffffffffffffffffffffffffffff16815260200190815260200160002060050160019054906101000a900460ff1615151461174e576040517f08c379a000000000000000000000000000000000000000000000000000000000815260040161174590613466565b60405180910390fd5b600460008373ffffffffffffffffffffffffffffffffffffffff1673ffffffffffffffffffffffffffffffffffffffff1681526020019081526020016000206040518060e00160405290816000820180546117a890613830565b80601f01602080910402602001604051908101604052809291908181526020018280546117d490613830565b80156118215780601f106117f657610100808354040283529160200191611821565b820191906000526020600020905b81548152906001019060200180831161180457829003601f168201915b5050505050815260200160018201805461183a90613830565b80601f016020809104026020016040519081016040528092919081815260200182805461186690613830565b80156118b35780601f10611888576101008083540402835291602001916118b3565b820191906000526020600020905b81548152906001019060200180831161189657829003601f168201915b505050505081526020016002820154815260200160038201548152602001600482015481526020016005820160009054906101000a900460ff161515151581526020016005820160019054906101000a900460ff1615151515815250509050919050565b60011515600460003373ffffffffffffffffffffffffffffffffffffffff1673ffffffffffffffffffffffffffffffffffffffff16815260200190815260200160002060050160019054906101000a900460ff161515146119ad576040517f08c379a00000000000000000000000000000000000000000000000000000000081526004016119a490613386565b60405180910390fd5b60001515600460003373ffffffffffffffffffffffffffffffffffffffff1673ffffffffffffffffffffffffffffffffffffffff16815260200190815260200160002060050160009054906101000a900460ff16151514611a43576040517f08c379a0000000000000000000000000000000000000000000000000000000008152600401611a3a90613506565b60405180910390fd5b6001600460003373ffffffffffffffffffffffffffffffffffffffff1673ffffffffffffffffffffffffffffffffffffffff16815260200190815260200160002060050160006101000a81548160ff0219169083151502179055507f33dae4871e3969137acdf45d646dddde76928a5fd78a059ec185c2e3073f39ad33600460003373ffffffffffffffffffffffffffffffffffffffff1673ffffffffffffffffffffffffffffffffffffffff168152602001908152602001600020600001604051611b109291906131dc565b60405180910390a1565b60606000600660008473ffffffffffffffffffffffffffffffffffffffff1673ffffffffffffffffffffffffffffffffffffffff16815260200190815260200160002080549050905060008167ffffffffffffffff811115611ba5577f4e487b7100000000000000000000000000000000000000000000000000000000600052604160045260246000fd5b604051908082528060200260200182016040528015611bde57816020015b611bcb612821565b815260200190600190039081611bc35790505b5090506000805b83811015611d64574260058281548110611c28577f4e487b7100000000000000000000000000000000000000000000000000000000600052603260045260246000fd5b9060005260206000209060030201600201541115611d515760058181548110611c7a577f4e487b7100000000000000000000000000000000000000000000000000000000600052603260045260246000fd5b90600052602060002090600302016040518060600160405290816000820160009054906101000a900473ffffffffffffffffffffffffffffffffffffffff1673ffffffffffffffffffffffffffffffffffffffff1673ffffffffffffffffffffffffffffffffffffffff16815260200160018201548152602001600282015481525050838381518110611d36577f4e487b7100000000000000000000000000000000000000000000000000000000600052603260045260246000fd5b6020026020010181905250600182611d4e919061367a565b91505b8080611d5c90613893565b915050611be5565b50819350505050919050565b60038181548110611d8057600080fd5b906000526020600020016000915054906101000a900473ffffffffffffffffffffffffffffffffffffffff1681565b3373ffffffffffffffffffffffffffffffffffffffff168173ffffffffffffffffffffffffffffffffffffffff161415611e1e576040517f08c379a0000000000000000000000000000000000000000000000000000000008152600401611e15906134a6565b60405180910390fd5b600460008273ffffffffffffffffffffffffffffffffffffffff1673ffffffffffffffffffffffffffffffffffffffff168152602001908152602001600020600401543373ffffffffffffffffffffffffffffffffffffffff16311015611eba576040517f08c379a0000000000000000000000000000000000000000000000000000000008152600401611eb1906134c6565b60405180910390fd5b600460008273ffffffffffffffffffffffffffffffffffffffff1673ffffffffffffffffffffffffffffffffffffffff168152602001908152602001600020600401543414611f3e576040517f08c379a0000000000000000000000000000000000000000000000000000000008152600401611f3590613486565b60405180910390fd5b60011515600460008373ffffffffffffffffffffffffffffffffffffffff1673ffffffffffffffffffffffffffffffffffffffff16815260200190815260200160002060050160019054906101000a900460ff16151514611fd4576040517f08c379a0000000000000000000000000000000000000000000000000000000008152600401611fcb90613466565b60405180910390fd5b60011515600460008373ffffffffffffffffffffffffffffffffffffffff1673ffffffffffffffffffffffffffffffffffffffff16815260200190815260200160002060050160009054906101000a900460ff1615151461206a576040517f08c379a000000000000000000000000000000000000000000000000000000000815260040161206190613366565b60405180910390fd5b6000600660003373ffffffffffffffffffffffffffffffffffffffff1673ffffffffffffffffffffffffffffffffffffffff1681526020019081526020016000208054806020026020016040519081016040528092919081815260200182805480156120f557602002820191906000526020600020905b8154815260200190600101908083116120e1575b50505050509050600080600090505b82518110156122d4578373ffffffffffffffffffffffffffffffffffffffff16600584838151811061215f577f4e487b7100000000000000000000000000000000000000000000000000000000600052603260045260246000fd5b60200260200101518154811061219e577f4e487b7100000000000000000000000000000000000000000000000000000000600052603260045260246000fd5b906000526020600020906003020160000160009054906101000a900473ffffffffffffffffffffffffffffffffffffffff1673ffffffffffffffffffffffffffffffffffffffff1614156122c157426005848381518110612228577f4e487b7100000000000000000000000000000000000000000000000000000000600052603260045260246000fd5b602002602001015181548110612267577f4e487b7100000000000000000000000000000000000000000000000000000000600052603260045260246000fd5b906000526020600020906003020160020154109150816122bc576040517f08c379a00000000000000000000000000000000000000000000000000000000081526004016122b3906133c6565b60405180910390fd5b6122d4565b80806122cc90613893565b915050612104565b3073ffffffffffffffffffffffffffffffffffffffff166108fc349081150290604051600060405180830381858888f1935050505015801561231a573d6000803e3d6000fd5b50600062015180600460008773ffffffffffffffffffffffffffffffffffffffff1673ffffffffffffffffffffffffffffffffffffffff1681526020019081526020016000206003015461236e9190613701565b42612379919061367a565b905082156124a6574260058584815181106123bd577f4e487b7100000000000000000000000000000000000000000000000000000000600052603260045260246000fd5b6020026020010151815481106123fc577f4e487b7100000000000000000000000000000000000000000000000000000000600052603260045260246000fd5b90600052602060002090600302016001018190555080600585848151811061244d577f4e487b7100000000000000000000000000000000000000000000000000000000600052603260045260246000fd5b60200260200101518154811061248c577f4e487b7100000000000000000000000000000000000000000000000000000000600052603260045260246000fd5b9060005260206000209060030201600201819055506125d7565b600560405180606001604052808773ffffffffffffffffffffffffffffffffffffffff16815260200142815260200183815250908060018154018082558091505060019003906000526020600020906003020160009091909190915060008201518160000160006101000a81548173ffffffffffffffffffffffffffffffffffffffff021916908373ffffffffffffffffffffffffffffffffffffffff16021790555060208201518160010155604082015181600201555050600660003373ffffffffffffffffffffffffffffffffffffffff1673ffffffffffffffffffffffffffffffffffffffff16815260200190815260200160002060016005805490506125b0919061375b565b90806001815401808255809150506001900390600052602060002001600090919091909150555b6000606460008054906101000a900460ff1660ff16346125f79190613701565b61260191906136d0565b905080600460008873ffffffffffffffffffffffffffffffffffffffff1673ffffffffffffffffffffffffffffffffffffffff16815260200190815260200160002060040154612651919061375b565b600460008873ffffffffffffffffffffffffffffffffffffffff1673ffffffffffffffffffffffffffffffffffffffff16815260200190815260200160002060020160008282546126a2919061367a565b9250508190555080600160008282546126bb919061367a565b925050819055507f51bb78b71c6aba7c377de6374e250ff83d59fc71c6a8b28f3aaac77c33b6dceb33874285600460008c73ffffffffffffffffffffffffffffffffffffffff1673ffffffffffffffffffffffffffffffffffffffff1681526020019081526020016000206004015460405161273b959493929190613189565b60405180910390a17fc5a2b7ad6439179b1edea47d8a4bc00b2c5270a1c741c00fab7be4012caa7d0a338260405161277492919061320c565b60405180910390a1505050505050565b60015481565b60008054906101000a900460ff1681565b8280546127a790613830565b90600052602060002090601f0160209004810192826127c95760008555612810565b82601f106127e257805160ff1916838001178555612810565b82800160010185558215612810579182015b8281111561280f5782518255916020019190600101906127f4565b5b50905061281d9190612899565b5090565b6040518060600160405280600073ffffffffffffffffffffffffffffffffffffffff16815260200160008152602001600081525090565b6040518060e0016040528060608152602001606081526020016000815260200160008152602001600081526020016000151581526020016000151581525090565b5b808211156128b257600081600090555060010161289a565b5090565b60006128c96128c4846135c3565b61359e565b9050828152602081018484840111156128e157600080fd5b6128ec8482856137ee565b509392505050565b60008135905061290381613d49565b92915050565b60008135905061291881613d60565b92915050565b600082601f83011261292f57600080fd5b813561293f8482602086016128b6565b91505092915050565b60008135905061295781613d77565b92915050565b60008135905061296c81613d8e565b92915050565b60006020828403121561298457600080fd5b6000612992848285016128f4565b91505092915050565b600080604083850312156129ae57600080fd5b60006129bc858286016128f4565b92505060206129cd85828601612948565b9150509250929050565b600080600080608085870312156129ed57600080fd5b600085013567ffffffffffffffff811115612a0757600080fd5b612a138782880161291e565b945050602085013567ffffffffffffffff811115612a3057600080fd5b612a3c8782880161291e565b9350506040612a4d87828801612948565b9250506060612a5e87828801612909565b91505092959194509250565b60008060008060808587031215612a8057600080fd5b600085013567ffffffffffffffff811115612a9a57600080fd5b612aa68782880161291e565b945050602085013567ffffffffffffffff811115612ac357600080fd5b612acf8782880161291e565b9350506040612ae087828801612948565b9250506060612af187828801612948565b91505092959194509250565b600060208284031215612b0f57600080fd5b6000612b1d84828501612948565b91505092915050565b600060208284031215612b3857600080fd5b6000612b468482850161295d565b91505092915050565b6000612b5b83836130bc565b60608301905092915050565b612b708161378f565b82525050565b612b7f8161378f565b82525050565b6000612b9082613619565b612b9a818561363c565b9350612ba5836135f4565b8060005b83811015612bd6578151612bbd8882612b4f565b9750612bc88361362f565b925050600181019050612ba9565b5085935050505092915050565b612bec816137a1565b82525050565b612bfb816137a1565b82525050565b6000612c0c82613624565b612c16818561364d565b9350612c268185602086016137fd565b612c2f81613998565b840191505092915050565b6000612c4582613624565b612c4f818561365e565b9350612c5f8185602086016137fd565b612c6881613998565b840191505092915050565b6000612c7e82613624565b612c88818561366f565b9350612c988185602086016137fd565b80840191505092915050565b60008154612cb181613830565b612cbb818661365e565b94506001821660008114612cd65760018114612ce857612d1b565b60ff1983168652602086019350612d1b565b612cf185613604565b60005b83811015612d1357815481890152600182019150602081019050612cf4565b808801955050505b50505092915050565b60008154612d3181613830565b612d3b818661366f565b94506001821660008114612d565760018114612d6757612d9a565b60ff19831686528186019350612d9a565b612d7085613604565b60005b83811015612d9257815481890152600182019150602081019050612d73565b838801955050505b50505092915050565b6000612db0601c8361365e565b9150612dbb826139a9565b602082019050919050565b6000612dd3602b8361365e565b9150612dde826139d2565b604082019050919050565b6000612df6601e8361365e565b9150612e0182613a21565b602082019050919050565b6000612e1960248361365e565b9150612e2482613a4a565b604082019050919050565b6000612e3c60168361365e565b9150612e4782613a99565b602082019050919050565b6000612e5f60228361365e565b9150612e6a82613ac2565b604082019050919050565b6000612e8260128361365e565b9150612e8d82613b11565b602082019050919050565b6000612ea560238361365e565b9150612eb082613b3a565b604082019050919050565b6000612ec8600b8361365e565b9150612ed382613b89565b602082019050919050565b6000612eeb600d8361365e565b9150612ef682613bb2565b602082019050919050565b6000612f0e60178361365e565b9150612f1982613bdb565b602082019050919050565b6000612f3160158361365e565b9150612f3c82613c04565b602082019050919050565b6000612f5460248361365e565b9150612f5f82613c2d565b604082019050919050565b6000612f7760148361365e565b9150612f8282613c7c565b602082019050919050565b6000612f9a60008361366f565b9150612fa582613ca5565b600082019050919050565b6000612fbd600f8361365e565b9150612fc882613ca8565b602082019050919050565b6000612fe060218361365e565b9150612feb82613cd1565b604082019050919050565b6000613003600f8361365e565b915061300e82613d20565b602082019050919050565b600060e08301600083015184820360008601526130368282612c01565b915050602083015184820360208601526130508282612c01565b915050604083015161306560408601826130fe565b50606083015161307860608601826130fe565b50608083015161308b60808601826130fe565b5060a083015161309e60a0860182612be3565b5060c08301516130b160c0860182612be3565b508091505092915050565b6060820160008201516130d26000850182612b67565b5060208201516130e560208501826130fe565b5060408201516130f860408501826130fe565b50505050565b613107816137d7565b82525050565b613116816137d7565b82525050565b613125816137e1565b82525050565b60006131378284612c73565b915081905092915050565b600061314e8284612d24565b915081905092915050565b600061316482612f8d565b9150819050919050565b60006020820190506131836000830184612b76565b92915050565b600060a08201905061319e6000830188612b76565b6131ab6020830187612b76565b6131b8604083018661310d565b6131c5606083018561310d565b6131d2608083018461310d565b9695505050505050565b60006040820190506131f16000830185612b76565b81810360208301526132038184612ca4565b90509392505050565b60006040820190506132216000830185612b76565b61322e602083018461310d565b9392505050565b600060608201905061324a6000830186612b76565b613257602083018561310d565b613264604083018461310d565b949350505050565b600060208201905081810360008301526132868184612b85565b905092915050565b60006020820190506132a36000830184612bf2565b92915050565b600060e08201905081810360008301526132c3818a612c3a565b905081810360208301526132d78189612c3a565b90506132e6604083018861310d565b6132f3606083018761310d565b613300608083018661310d565b61330d60a0830185612bf2565b61331a60c0830184612bf2565b98975050505050505050565b6000602082019050818103600083015261333f81612da3565b9050919050565b6000602082019050818103600083015261335f81612dc6565b9050919050565b6000602082019050818103600083015261337f81612de9565b9050919050565b6000602082019050818103600083015261339f81612e0c565b9050919050565b600060208201905081810360008301526133bf81612e2f565b9050919050565b600060208201905081810360008301526133df81612e52565b9050919050565b600060208201905081810360008301526133ff81612e75565b9050919050565b6000602082019050818103600083015261341f81612e98565b9050919050565b6000602082019050818103600083015261343f81612ebb565b9050919050565b6000602082019050818103600083015261345f81612ede565b9050919050565b6000602082019050818103600083015261347f81612f01565b9050919050565b6000602082019050818103600083015261349f81612f24565b9050919050565b600060208201905081810360008301526134bf81612f47565b9050919050565b600060208201905081810360008301526134df81612f6a565b9050919050565b600060208201905081810360008301526134ff81612fb0565b9050919050565b6000602082019050818103600083015261351f81612fd3565b9050919050565b6000602082019050818103600083015261353f81612ff6565b9050919050565b600060208201905081810360008301526135608184613019565b905092915050565b600060208201905061357d600083018461310d565b92915050565b6000602082019050613598600083018461311c565b92915050565b60006135a86135b9565b90506135b48282613862565b919050565b6000604051905090565b600067ffffffffffffffff8211156135de576135dd613969565b5b6135e782613998565b9050602081019050919050565b6000819050602082019050919050565b60008190508160005260206000209050919050565b600081519050919050565b600081519050919050565b6000602082019050919050565b600082825260208201905092915050565b600082825260208201905092915050565b600082825260208201905092915050565b600081905092915050565b6000613685826137d7565b9150613690836137d7565b9250827fffffffffffffffffffffffffffffffffffffffffffffffffffffffffffffffff038211156136c5576136c46138dc565b5b828201905092915050565b60006136db826137d7565b91506136e6836137d7565b9250826136f6576136f561390b565b5b828204905092915050565b600061370c826137d7565b9150613717836137d7565b9250817fffffffffffffffffffffffffffffffffffffffffffffffffffffffffffffffff04831182151516156137505761374f6138dc565b5b828202905092915050565b6000613766826137d7565b9150613771836137d7565b925082821015613784576137836138dc565b5b828203905092915050565b600061379a826137b7565b9050919050565b60008115159050919050565b6000819050919050565b600073ffffffffffffffffffffffffffffffffffffffff82169050919050565b6000819050919050565b600060ff82169050919050565b82818337600083830152505050565b60005b8381101561381b578082015181840152602081019050613800565b8381111561382a576000848401525b50505050565b6000600282049050600182168061384857607f821691505b6020821081141561385c5761385b61393a565b5b50919050565b61386b82613998565b810181811067ffffffffffffffff8211171561388a57613889613969565b5b80604052505050565b600061389e826137d7565b91507fffffffffffffffffffffffffffffffffffffffffffffffffffffffffffffffff8214156138d1576138d06138dc565b5b600182019050919050565b7f4e487b7100000000000000000000000000000000000000000000000000000000600052601160045260246000fd5b7f4e487b7100000000000000000000000000000000000000000000000000000000600052601260045260246000fd5b7f4e487b7100000000000000000000000000000000000000000000000000000000600052602260045260246000fd5b7f4e487b7100000000000000000000000000000000000000000000000000000000600052604160045260246000fd5b6000601f19601f8301169050919050565b7f596f75722063726561746f7220646f6573206e6f742065786973747300000000600082015250565b7f596f75722063726561746f72206163636f756e7420697320616c72656164792060008201527f6465616374697661746564000000000000000000000000000000000000000000602082015250565b7f43726561746f72206163636f756e742069732064656163746976617465640000600082015250565b7f596f75722063726561746f72206163636f756e7420646f6573206e6f7420657860008201527f6973747300000000000000000000000000000000000000000000000000000000602082015250565b7f43726561746f7220616c72656164792065786973747300000000000000000000600082015250565b7f416c7265616479207375627363726962656420746f207468697320637265617460008201527f6f72000000000000000000000000000000000000000000000000000000000000602082015250565b7f496e73756666696369656e742066756e64730000000000000000000000000000600082015250565b7f596f75722063726561746f72206163636f756e7420697320646561637469766160008201527f7465640000000000000000000000000000000000000000000000000000000000602082015250565b7f416c726561647920736574000000000000000000000000000000000000000000600082015250565b7f4d6f7265207468616e2035302500000000000000000000000000000000000000600082015250565b7f43726561746f7220646f6573206e6f7420657869737473000000000000000000600082015250565b7f53656e6420537562736372697074696f6e206665650000000000000000000000600082015250565b7f4e6f206e65656420746f2073756273637269626520746f206f776e20636f6e7460008201527f656e742100000000000000000000000000000000000000000000000000000000602082015250565b7f496e73756666696369656e742042616c616e6365000000000000000000000000600082015250565b50565b7f4e6f7468696e6720757064617465640000000000000000000000000000000000600082015250565b7f796f7572206163636f756e7420697320416c726561647920616374697661746560008201527f6400000000000000000000000000000000000000000000000000000000000000602082015250565b7f5769746864726177204c6f636b65640000000000000000000000000000000000600082015250565b613d528161378f565b8114613d5d57600080fd5b50565b613d69816137ad565b8114613d7457600080fd5b50565b613d80816137d7565b8114613d8b57600080fd5b50565b613d97816137e1565b8114613da257600080fd5b5056fea2646970667358221220f38e527ebafa58477e512f43458c0714ac57bbaf1145f20e1134e386fad260b264736f6c63430008040033",
  "linkReferences": {},
  "deployedLinkReferences": {}
}