{
  "_format": "hh-sol-artifact-1",
  "contractName": "Fanbuidl",
  "sourceName": "contracts/Fanbuidl.sol",
  "abi": [
    {
      "inputs": [],
      "stateMutability": "nonpayable",
      "type": "constructor"
    },
    {
      "anonymous": false,
      "inputs": [
        {
          "indexed": false,
          "internalType": "address",
          "name": "",
          "type": "address"
        },
        {
          "indexed": false,
          "internalType": "string",
          "name": "",
          "type": "string"
        }
      ],
      "name": "creatorActivated",
      "type": "event"
    },
    {
      "anonymous": false,
      "inputs": [
        {
          "indexed": false,
          "internalType": "address",
          "name": "",
          "type": "address"
        },
        {
          "indexed": false,
          "internalType": "string",
          "name": "",
          "type": "string"
        }
      ],
      "name": "creatorCreated",
      "type": "event"
    },
    {
      "anonymous": false,
      "inputs": [
        {
          "indexed": false,
          "internalType": "address",
          "name": "",
          "type": "address"
        },
        {
          "indexed": false,
          "internalType": "string",
          "name": "",
          "type": "string"
        }
      ],
      "name": "creatorDeactivated",
      "type": "event"
    },
    {
      "anonymous": false,
      "inputs": [
        {
          "indexed": false,
          "internalType": "address",
          "name": "",
          "type": "address"
        },
        {
          "indexed": false,
          "internalType": "string",
          "name": "",
          "type": "string"
        }
      ],
      "name": "creatorUpdated",
      "type": "event"
    },
    {
      "anonymous": false,
      "inputs": [
        {
          "indexed": false,
          "internalType": "address",
          "name": "",
          "type": "address"
        },
        {
          "indexed": false,
          "internalType": "uint256",
          "name": "",
          "type": "uint256"
        }
      ],
      "name": "feeCollected",
      "type": "event"
    },
    {
      "anonymous": false,
      "inputs": [
        {
          "indexed": false,
          "internalType": "address",
          "name": "",
          "type": "address"
        },
        {
          "indexed": false,
          "internalType": "uint256",
          "name": "",
          "type": "uint256"
        }
      ],
      "name": "fundsReceived",
      "type": "event"
    },
    {
      "anonymous": false,
      "inputs": [
        {
          "indexed": false,
          "internalType": "address",
          "name": "",
          "type": "address"
        },
        {
          "indexed": false,
          "internalType": "address",
          "name": "",
          "type": "address"
        },
        {
          "indexed": false,
          "internalType": "uint256",
          "name": "",
          "type": "uint256"
        },
        {
          "indexed": false,
          "internalType": "uint256",
          "name": "",
          "type": "uint256"
        },
        {
          "indexed": false,
          "internalType": "uint256",
          "name": "",
          "type": "uint256"
        }
      ],
      "name": "gotSubscribed",
      "type": "event"
    },
    {
      "stateMutability": "payable",
      "type": "fallback"
    },
    {
      "inputs": [],
      "name": "activateCreator",
      "outputs": [],
      "stateMutability": "nonpayable",
      "type": "function"
    },
    {
      "inputs": [],
      "name": "collectedFee",
      "outputs": [
        {
          "internalType": "uint256",
          "name": "",
          "type": "uint256"
        }
      ],
      "stateMutability": "view",
      "type": "function"
    },
    {
      "inputs": [
        {
          "internalType": "string",
          "name": "name",
          "type": "string"
        },
        {
          "internalType": "string",
          "name": "desc",
          "type": "string"
        },
        {
          "internalType": "uint256",
          "name": "subdays",
          "type": "uint256"
        },
        {
          "internalType": "uint256",
          "name": "fee",
          "type": "uint256"
        }
      ],
      "name": "createCreator",
      "outputs": [],
      "stateMutability": "nonpayable",
      "type": "function"
    },
    {
      "inputs": [],
      "name": "creatorFee",
      "outputs": [
        {
          "internalType": "uint8",
          "name": "",
          "type": "uint8"
        }
      ],
      "stateMutability": "view",
      "type": "function"
    },
    {
      "inputs": [
        {
          "internalType": "address",
          "name": "",
          "type": "address"
        }
      ],
      "name": "creatorList",
      "outputs": [
        {
          "internalType": "string",
          "name": "accountName",
          "type": "string"
        },
        {
          "internalType": "string",
          "name": "desription",
          "type": "string"
        },
        {
          "internalType": "uint256",
          "name": "balance",
          "type": "uint256"
        },
        {
          "internalType": "uint256",
          "name": "subDays",
          "type": "uint256"
        },
        {
          "internalType": "uint256",
          "name": "subFee",
          "type": "uint256"
        },
        {
          "internalType": "bool",
          "name": "active",
          "type": "bool"
        },
        {
          "internalType": "bool",
          "name": "check",
          "type": "bool"
        }
      ],
      "stateMutability": "view",
      "type": "function"
    },
    {
      "inputs": [
        {
          "internalType": "uint256",
          "name": "",
          "type": "uint256"
        }
      ],
      "name": "creators",
      "outputs": [
        {
          "internalType": "address",
          "name": "",
          "type": "address"
        }
      ],
      "stateMutability": "view",
      "type": "function"
    },
    {
      "inputs": [],
      "name": "deactivateCreator",
      "outputs": [],
      "stateMutability": "nonpayable",
      "type": "function"
    },
    {
      "inputs": [
        {
          "internalType": "address",
          "name": "subscriber",
          "type": "address"
        }
      ],
      "name": "getActiveSubscriptionCount",
      "outputs": [
        {
          "internalType": "uint256",
          "name": "",
          "type": "uint256"
        }
      ],
      "stateMutability": "view",
      "type": "function"
    },
    {
      "inputs": [
        {
          "internalType": "address",
          "name": "subscriber",
          "type": "address"
        }
      ],
      "name": "getActiveSubscriptions",
      "outputs": [
        {
          "components": [
            {
              "internalType": "address",
              "name": "creator",
              "type": "address"
            },
            {
              "internalType": "uint256",
              "name": "startDate",
              "type": "uint256"
            },
            {
              "internalType": "uint256",
              "name": "endDate",
              "type": "uint256"
            }
          ],
          "internalType": "struct Fanbuidl.Subcscription[]",
          "name": "",
          "type": "tuple[]"
        }
      ],
      "stateMutability": "view",
      "type": "function"
    },
    {
      "inputs": [],
      "name": "getBalance",
      "outputs": [
        {
          "internalType": "uint256",
          "name": "",
          "type": "uint256"
        }
      ],
      "stateMutability": "view",
      "type": "function"
    },
    {
      "inputs": [
        {
          "internalType": "address",
          "name": "ad",
          "type": "address"
        }
      ],
      "name": "getCreator",
      "outputs": [
        {
          "components": [
            {
              "internalType": "string",
              "name": "accountName",
              "type": "string"
            },
            {
              "internalType": "string",
              "name": "desription",
              "type": "string"
            },
            {
              "internalType": "uint256",
              "name": "balance",
              "type": "uint256"
            },
            {
              "internalType": "uint256",
              "name": "subDays",
              "type": "uint256"
            },
            {
              "internalType": "uint256",
              "name": "subFee",
              "type": "uint256"
            },
            {
              "internalType": "bool",
              "name": "active",
              "type": "bool"
            },
            {
              "internalType": "bool",
              "name": "check",
              "type": "bool"
            }
          ],
          "internalType": "struct Fanbuidl.Creator",
          "name": "cr",
          "type": "tuple"
        }
      ],
      "stateMutability": "view",
      "type": "function"
    },
    {
      "inputs": [
        {
          "internalType": "address",
          "name": "subscriber",
          "type": "address"
        }
      ],
      "name": "getExpiredSubscriptions",
      "outputs": [
        {
          "components": [
            {
              "internalType": "address",
              "name": "creator",
              "type": "address"
            },
            {
              "internalType": "uint256",
              "name": "startDate",
              "type": "uint256"
            },
            {
              "internalType": "uint256",
              "name": "endDate",
              "type": "uint256"
            }
          ],
          "internalType": "struct Fanbuidl.Subcscription[]",
          "name": "",
          "type": "tuple[]"
        }
      ],
      "stateMutability": "view",
      "type": "function"
    },
    {
      "inputs": [
        {
          "internalType": "address",
          "name": "subscriber",
          "type": "address"
        }
      ],
      "name": "getExpiringSubscriptionCount",
      "outputs": [
        {
          "internalType": "uint256",
          "name": "",
          "type": "uint256"
        }
      ],
      "stateMutability": "view",
      "type": "function"
    },
    {
      "inputs": [],
      "name": "getOwner",
      "outputs": [
        {
          "internalType": "address",
          "name": "",
          "type": "address"
        }
      ],
      "stateMutability": "view",
      "type": "function"
    },
    {
      "inputs": [],
      "name": "owner",
      "outputs": [
        {
          "internalType": "address",
          "name": "",
          "type": "address"
        }
      ],
      "stateMutability": "view",
      "type": "function"
    },
    {
      "inputs": [
        {
          "internalType": "uint8",
          "name": "_fee",
          "type": "uint8"
        }
      ],
      "name": "setCreatorFee",
      "outputs": [],
      "stateMutability": "nonpayable",
      "type": "function"
    },
    {
      "inputs": [
        {
          "internalType": "address",
          "name": "",
          "type": "address"
        },
        {
          "internalType": "uint256",
          "name": "",
          "type": "uint256"
        }
      ],
      "name": "subList",
      "outputs": [
        {
          "internalType": "uint256",
          "name": "",
          "type": "uint256"
        }
      ],
      "stateMutability": "view",
      "type": "function"
    },
    {
      "inputs": [
        {
          "internalType": "address",
          "name": "creator",
          "type": "address"
        }
      ],
      "name": "subscribeMe",
      "outputs": [],
      "stateMutability": "payable",
      "type": "function"
    },
    {
      "inputs": [
        {
          "internalType": "uint256",
          "name": "",
          "type": "uint256"
        }
      ],
      "name": "subscriptions",
      "outputs": [
        {
          "internalType": "address",
          "name": "creator",
          "type": "address"
        },
        {
          "internalType": "uint256",
          "name": "startDate",
          "type": "uint256"
        },
        {
          "internalType": "uint256",
          "name": "endDate",
          "type": "uint256"
        }
      ],
      "stateMutability": "view",
      "type": "function"
    },
    {
      "inputs": [
        {
          "internalType": "string",
          "name": "_name",
          "type": "string"
        },
        {
          "internalType": "string",
          "name": "_desc",
          "type": "string"
        },
        {
          "internalType": "uint256",
          "name": "subdays",
          "type": "uint256"
        },
        {
          "internalType": "int256",
          "name": "_subFee",
          "type": "int256"
        }
      ],
      "name": "updateCreator",
      "outputs": [],
      "stateMutability": "nonpayable",
      "type": "function"
    },
    {
      "inputs": [
        {
          "internalType": "uint256",
          "name": "_amount",
          "type": "uint256"
        }
      ],
      "name": "withdrawFunds",
      "outputs": [],
      "stateMutability": "payable",
      "type": "function"
    },
    {
      "inputs": [],
      "name": "withdrawLock",
      "outputs": [
        {
          "internalType": "bool",
          "name": "",
          "type": "bool"
        }
      ],
      "stateMutability": "view",
      "type": "function"
    },
    {
      "stateMutability": "payable",
      "type": "receive"
    }
  ],
  "bytecode": "0x60a060405234801561001057600080fd5b503373ffffffffffffffffffffffffffffffffffffffff1660808173ffffffffffffffffffffffffffffffffffffffff1660601b81525050600a6000806101000a81548160ff021916908360ff16021790555060805160601c61407861009d6000396000818161090401528181610a1101528181610d3c015281816116af015261192b01526140786000f3fe6080604052600436106101395760003560e01c80635dff3a03116100ab578063c485def41161006f578063c485def414610488578063c70eba2a1461049f578063cd53d08e146104dc578063cdb447fe14610519578063e811f50a14610535578063e88958dc1461056057610179565b80635dff3a031461037b578063893d20e8146103b857806389932d6a146103e35780638da5cb5b14610420578063a02103091461044b57610179565b80632370b8a7116100fd5780632370b8a7146102455780632454c8d71461026e5780632d5bbf60146102ab57806335b25d34146102ea578063448956a6146103135780635c388ca61461035057610179565b8063115b15701461017b57806312065fe0146101be5780631421b7d2146101e9578063155dd5ee1461020057806320440a941461021c57610179565b36610179577f445ab35117cf4b171680957d35f1a089ded7f4608bdef1797b266df9d930f28e333460405161016f9291906134a9565b60405180910390a1005b005b34801561018757600080fd5b506101a2600480360381019061019d9190612c0f565b61058b565b6040516101b59796959493929190613546565b60405180910390f35b3480156101ca57600080fd5b506101d36106f7565b6040516101e09190613805565b60405180910390f35b3480156101f557600080fd5b506101fe6106ff565b005b61021a60048036038101906102159190612d9a565b610902565b005b34801561022857600080fd5b50610243600480360381019061023e9190612d07565b610aad565b005b34801561025157600080fd5b5061026c60048036038101906102679190612dc3565b610d3a565b005b34801561027a57600080fd5b5061029560048036038101906102909190612c0f565b610e4b565b6040516102a29190613805565b60405180910390f35b3480156102b757600080fd5b506102d260048036038101906102cd9190612d9a565b61100c565b6040516102e1939291906134d2565b60405180910390f35b3480156102f657600080fd5b50610311600480360381019061030c9190612c74565b611066565b005b34801561031f57600080fd5b5061033a60048036038101906103359190612c38565b61161b565b6040516103479190613805565b60405180910390f35b34801561035c57600080fd5b5061036561164c565b604051610372919061352b565b60405180910390f35b34801561038757600080fd5b506103a2600480360381019061039d9190612c0f565b61165f565b6040516103af9190613805565b60405180910390f35b3480156103c457600080fd5b506103cd6116ab565b6040516103da919061340b565b60405180910390f35b3480156103ef57600080fd5b5061040a60048036038101906104059190612c0f565b6116d3565b6040516104179190613509565b60405180910390f35b34801561042c57600080fd5b50610435611929565b604051610442919061340b565b60405180910390f35b34801561045757600080fd5b50610472600480360381019061046d9190612c0f565b61194d565b60405161047f91906137e3565b60405180910390f35b34801561049457600080fd5b5061049d611bb4565b005b3480156104ab57600080fd5b506104c660048036038101906104c19190612c0f565b611db7565b6040516104d39190613509565b60405180910390f35b3480156104e857600080fd5b5061050360048036038101906104fe9190612d9a565b61200d565b604051610510919061340b565b60405180910390f35b610533600480360381019061052e9190612c0f565b61204c565b005b34801561054157600080fd5b5061054a612a21565b6040516105579190613805565b60405180910390f35b34801561056c57600080fd5b50610575612a27565b6040516105829190613820565b60405180910390f35b60046020528060005260406000206000915090508060000180546105ae90613acd565b80601f01602080910402602001604051908101604052809291908181526020018280546105da90613acd565b80156106275780601f106105fc57610100808354040283529160200191610627565b820191906000526020600020905b81548152906001019060200180831161060a57829003601f168201915b50505050509080600101805461063c90613acd565b80601f016020809104026020016040519081016040528092919081815260200182805461066890613acd565b80156106b55780601f1061068a576101008083540402835291602001916106b5565b820191906000526020600020905b81548152906001019060200180831161069857829003601f168201915b5050505050908060020154908060030154908060040154908060050160009054906101000a900460ff16908060050160019054906101000a900460ff16905087565b600047905090565b60011515600460003373ffffffffffffffffffffffffffffffffffffffff1673ffffffffffffffffffffffffffffffffffffffff16815260200190815260200160002060050160019054906101000a900460ff16151514610795576040517f08c379a000000000000000000000000000000000000000000000000000000000815260040161078c906135c3565b60405180910390fd5b60011515600460003373ffffffffffffffffffffffffffffffffffffffff1673ffffffffffffffffffffffffffffffffffffffff16815260200190815260200160002060050160009054906101000a900460ff1615151461082b576040517f08c379a0000000000000000000000000000000000000000000000000000000008152600401610822906135e3565b60405180910390fd5b6000600460003373ffffffffffffffffffffffffffffffffffffffff1673ffffffffffffffffffffffffffffffffffffffff16815260200190815260200160002060050160006101000a81548160ff0219169083151502179055507fbb3ee8ebf1986e1d606f357d66cf35186b8d67b737fbdf816befea32a3fd462f33600460003373ffffffffffffffffffffffffffffffffffffffff1673ffffffffffffffffffffffffffffffffffffffff1681526020019081526020016000206000016040516108f8929190613479565b60405180910390a1565b7f000000000000000000000000000000000000000000000000000000000000000073ffffffffffffffffffffffffffffffffffffffff163373ffffffffffffffffffffffffffffffffffffffff161461095a57600080fd5b600154811061099e576040517f08c379a000000000000000000000000000000000000000000000000000000000815260040161099590613683565b60405180910390fd5b60001515600260009054906101000a900460ff161515146109f4576040517f08c379a00000000000000000000000000000000000000000000000000000000081526004016109eb906137c3565b60405180910390fd5b6001600260006101000a81548160ff0219169083151502179055507f000000000000000000000000000000000000000000000000000000000000000073ffffffffffffffffffffffffffffffffffffffff166108fc829081150290604051600060405180830381858888f19350505050158015610a75573d6000803e3d6000fd5b508060016000828254610a8891906139f8565b925050819055506000600260006101000a81548160ff02191690831515021790555050565b60001515600460003373ffffffffffffffffffffffffffffffffffffffff1673ffffffffffffffffffffffffffffffffffffffff16815260200190815260200160002060050160019054906101000a900460ff16151514610b43576040517f08c379a0000000000000000000000000000000000000000000000000000000008152600401610b3a90613643565b60405180910390fd5b6003339080600181540180825580915050600190039060005260206000200160009091909190916101000a81548173ffffffffffffffffffffffffffffffffffffffff021916908373ffffffffffffffffffffffffffffffffffffffff1602179055506040518060e001604052808581526020018481526020016000815260200183815260200182815260200160011515815260200160011515815250600460003373ffffffffffffffffffffffffffffffffffffffff1673ffffffffffffffffffffffffffffffffffffffff1681526020019081526020016000206000820151816000019080519060200190610c3b929190612a38565b506020820151816001019080519060200190610c58929190612a38565b5060408201518160020155606082015181600301556080820151816004015560a08201518160050160006101000a81548160ff02191690831515021790555060c08201518160050160016101000a81548160ff0219169083151502179055509050507fbe655ea337469721a58ab6c884d1c0a7c4223c93ae3deea43234f5b36aacd55633600460003373ffffffffffffffffffffffffffffffffffffffff1673ffffffffffffffffffffffffffffffffffffffff168152602001908152602001600020600001604051610d2c929190613479565b60405180910390a150505050565b7f000000000000000000000000000000000000000000000000000000000000000073ffffffffffffffffffffffffffffffffffffffff163373ffffffffffffffffffffffffffffffffffffffff1614610d9257600080fd5b8060ff1660008054906101000a900460ff1660ff161415610de8576040517f08c379a0000000000000000000000000000000000000000000000000000000008152600401610ddf906136c3565b60405180910390fd5b60328160ff1610610e2e576040517f08c379a0000000000000000000000000000000000000000000000000000000008152600401610e25906136e3565b60405180910390fd5b806000806101000a81548160ff021916908360ff16021790555050565b600080600660008473ffffffffffffffffffffffffffffffffffffffff1673ffffffffffffffffffffffffffffffffffffffff16815260200190815260200160002090506000805b828054905081101561100157426005848381548110610edb577f4e487b7100000000000000000000000000000000000000000000000000000000600052603260045260246000fd5b906000526020600020015481548110610f1d577f4e487b7100000000000000000000000000000000000000000000000000000000600052603260045260246000fd5b90600052602060002090600302016002015410158015610fd9575062093a8042610f479190613917565b6005848381548110610f82577f4e487b7100000000000000000000000000000000000000000000000000000000600052603260045260246000fd5b906000526020600020015481548110610fc4577f4e487b7100000000000000000000000000000000000000000000000000000000600052603260045260246000fd5b90600052602060002090600302016002015411155b15610fee57600182610feb9190613917565b91505b8080610ff990613b30565b915050610e93565b508092505050919050565b6005818154811061101c57600080fd5b90600052602060002090600302016000915090508060000160009054906101000a900473ffffffffffffffffffffffffffffffffffffffff16908060010154908060020154905083565b60011515600460003373ffffffffffffffffffffffffffffffffffffffff1673ffffffffffffffffffffffffffffffffffffffff16815260200190815260200160002060050160019054906101000a900460ff161515146110fc576040517f08c379a00000000000000000000000000000000000000000000000000000000081526004016110f390613703565b60405180910390fd5b60011515600460003373ffffffffffffffffffffffffffffffffffffffff1673ffffffffffffffffffffffffffffffffffffffff16815260200190815260200160002060050160009054906101000a900460ff16151514611192576040517f08c379a0000000000000000000000000000000000000000000000000000000008152600401611189906136a3565b60405180910390fd5b60006040516020016111a3906133f6565b60405160208183030381529060405280519060200120856040516020016111ca91906133c8565b60405160208183030381529060405280519060200120146112d657846040516020016111f691906133c8565b60405160208183030381529060405280519060200120600460003373ffffffffffffffffffffffffffffffffffffffff1673ffffffffffffffffffffffffffffffffffffffff16815260200190815260200160002060000160405160200161125e91906133df565b60405160208183030381529060405280519060200120146112d5576001905084600460003373ffffffffffffffffffffffffffffffffffffffff1673ffffffffffffffffffffffffffffffffffffffff16815260200190815260200160002060000190805190602001906112d3929190612a38565b505b5b6040516020016112e5906133f6565b604051602081830303815290604052805190602001208460405160200161130c91906133c8565b6040516020818303038152906040528051906020012014611418578360405160200161133891906133c8565b60405160208183030381529060405280519060200120600460003373ffffffffffffffffffffffffffffffffffffffff1673ffffffffffffffffffffffffffffffffffffffff1681526020019081526020016000206001016040516020016113a091906133df565b6040516020818303038152906040528051906020012014611417576001905083600460003373ffffffffffffffffffffffffffffffffffffffff1673ffffffffffffffffffffffffffffffffffffffff1681526020019081526020016000206001019080519060200190611415929190612a38565b505b5b600083146114b65782600460003373ffffffffffffffffffffffffffffffffffffffff1673ffffffffffffffffffffffffffffffffffffffff16815260200190815260200160002060030154146114b5576001905082600460003373ffffffffffffffffffffffffffffffffffffffff1673ffffffffffffffffffffffffffffffffffffffff168152602001908152602001600020600301819055505b5b600082146115545781600460003373ffffffffffffffffffffffffffffffffffffffff1673ffffffffffffffffffffffffffffffffffffffff1681526020019081526020016000206004015414611553576001905081600460003373ffffffffffffffffffffffffffffffffffffffff1673ffffffffffffffffffffffffffffffffffffffff168152602001908152602001600020600401819055505b5b80156115d9577f28a9510eef92dc4b9a2c276d619cc4542f742b4d60296206f0accc035e9a1f1533600460003373ffffffffffffffffffffffffffffffffffffffff1673ffffffffffffffffffffffffffffffffffffffff1681526020019081526020016000206000016040516115cc929190613479565b60405180910390a1611614565b6040517f08c379a000000000000000000000000000000000000000000000000000000000815260040161160b90613783565b60405180910390fd5b5050505050565b6006602052816000526040600020818154811061163757600080fd5b90600052602060002001600091509150505481565b600260009054906101000a900460ff1681565b6000600660008373ffffffffffffffffffffffffffffffffffffffff1673ffffffffffffffffffffffffffffffffffffffff168152602001908152602001600020805490509050919050565b60007f0000000000000000000000000000000000000000000000000000000000000000905090565b60606000600660008473ffffffffffffffffffffffffffffffffffffffff1673ffffffffffffffffffffffffffffffffffffffff16815260200190815260200160002080549050905060008167ffffffffffffffff81111561175e577f4e487b7100000000000000000000000000000000000000000000000000000000600052604160045260246000fd5b60405190808252806020026020018201604052801561179757816020015b611784612abe565b81526020019060019003908161177c5790505b5090506000805b8381101561191d5742600582815481106117e1577f4e487b7100000000000000000000000000000000000000000000000000000000600052603260045260246000fd5b906000526020600020906003020160020154101561190a5760058181548110611833577f4e487b7100000000000000000000000000000000000000000000000000000000600052603260045260246000fd5b90600052602060002090600302016040518060600160405290816000820160009054906101000a900473ffffffffffffffffffffffffffffffffffffffff1673ffffffffffffffffffffffffffffffffffffffff1673ffffffffffffffffffffffffffffffffffffffff168152602001600182015481526020016002820154815250508383815181106118ef577f4e487b7100000000000000000000000000000000000000000000000000000000600052603260045260246000fd5b60200260200101819052506001826119079190613917565b91505b808061191590613b30565b91505061179e565b50819350505050919050565b7f000000000000000000000000000000000000000000000000000000000000000081565b611955612af5565b60011515600460008473ffffffffffffffffffffffffffffffffffffffff1673ffffffffffffffffffffffffffffffffffffffff16815260200190815260200160002060050160019054906101000a900460ff161515146119eb576040517f08c379a00000000000000000000000000000000000000000000000000000000081526004016119e290613703565b60405180910390fd5b600460008373ffffffffffffffffffffffffffffffffffffffff1673ffffffffffffffffffffffffffffffffffffffff1681526020019081526020016000206040518060e0016040529081600082018054611a4590613acd565b80601f0160208091040260200160405190810160405280929190818152602001828054611a7190613acd565b8015611abe5780601f10611a9357610100808354040283529160200191611abe565b820191906000526020600020905b815481529060010190602001808311611aa157829003601f168201915b50505050508152602001600182018054611ad790613acd565b80601f0160208091040260200160405190810160405280929190818152602001828054611b0390613acd565b8015611b505780601f10611b2557610100808354040283529160200191611b50565b820191906000526020600020905b815481529060010190602001808311611b3357829003601f168201915b505050505081526020016002820154815260200160038201548152602001600482015481526020016005820160009054906101000a900460ff161515151581526020016005820160019054906101000a900460ff1615151515815250509050919050565b60011515600460003373ffffffffffffffffffffffffffffffffffffffff1673ffffffffffffffffffffffffffffffffffffffff16815260200190815260200160002060050160019054906101000a900460ff16151514611c4a576040517f08c379a0000000000000000000000000000000000000000000000000000000008152600401611c4190613623565b60405180910390fd5b60001515600460003373ffffffffffffffffffffffffffffffffffffffff1673ffffffffffffffffffffffffffffffffffffffff16815260200190815260200160002060050160009054906101000a900460ff16151514611ce0576040517f08c379a0000000000000000000000000000000000000000000000000000000008152600401611cd7906137a3565b60405180910390fd5b6001600460003373ffffffffffffffffffffffffffffffffffffffff1673ffffffffffffffffffffffffffffffffffffffff16815260200190815260200160002060050160006101000a81548160ff0219169083151502179055507f33dae4871e3969137acdf45d646dddde76928a5fd78a059ec185c2e3073f39ad33600460003373ffffffffffffffffffffffffffffffffffffffff1673ffffffffffffffffffffffffffffffffffffffff168152602001908152602001600020600001604051611dad929190613479565b60405180910390a1565b60606000600660008473ffffffffffffffffffffffffffffffffffffffff1673ffffffffffffffffffffffffffffffffffffffff16815260200190815260200160002080549050905060008167ffffffffffffffff811115611e42577f4e487b7100000000000000000000000000000000000000000000000000000000600052604160045260246000fd5b604051908082528060200260200182016040528015611e7b57816020015b611e68612abe565b815260200190600190039081611e605790505b5090506000805b83811015612001574260058281548110611ec5577f4e487b7100000000000000000000000000000000000000000000000000000000600052603260045260246000fd5b9060005260206000209060030201600201541115611fee5760058181548110611f17577f4e487b7100000000000000000000000000000000000000000000000000000000600052603260045260246000fd5b90600052602060002090600302016040518060600160405290816000820160009054906101000a900473ffffffffffffffffffffffffffffffffffffffff1673ffffffffffffffffffffffffffffffffffffffff1673ffffffffffffffffffffffffffffffffffffffff16815260200160018201548152602001600282015481525050838381518110611fd3577f4e487b7100000000000000000000000000000000000000000000000000000000600052603260045260246000fd5b6020026020010181905250600182611feb9190613917565b91505b8080611ff990613b30565b915050611e82565b50819350505050919050565b6003818154811061201d57600080fd5b906000526020600020016000915054906101000a900473ffffffffffffffffffffffffffffffffffffffff1681565b3373ffffffffffffffffffffffffffffffffffffffff168173ffffffffffffffffffffffffffffffffffffffff1614156120bb576040517f08c379a00000000000000000000000000000000000000000000000000000000081526004016120b290613743565b60405180910390fd5b600460008273ffffffffffffffffffffffffffffffffffffffff1673ffffffffffffffffffffffffffffffffffffffff168152602001908152602001600020600401543373ffffffffffffffffffffffffffffffffffffffff16311015612157576040517f08c379a000000000000000000000000000000000000000000000000000000000815260040161214e90613763565b60405180910390fd5b600460008273ffffffffffffffffffffffffffffffffffffffff1673ffffffffffffffffffffffffffffffffffffffff1681526020019081526020016000206004015434146121db576040517f08c379a00000000000000000000000000000000000000000000000000000000081526004016121d290613723565b60405180910390fd5b60011515600460008373ffffffffffffffffffffffffffffffffffffffff1673ffffffffffffffffffffffffffffffffffffffff16815260200190815260200160002060050160019054906101000a900460ff16151514612271576040517f08c379a000000000000000000000000000000000000000000000000000000000815260040161226890613703565b60405180910390fd5b60011515600460008373ffffffffffffffffffffffffffffffffffffffff1673ffffffffffffffffffffffffffffffffffffffff16815260200190815260200160002060050160009054906101000a900460ff16151514612307576040517f08c379a00000000000000000000000000000000000000000000000000000000081526004016122fe90613603565b60405180910390fd5b6000600660003373ffffffffffffffffffffffffffffffffffffffff1673ffffffffffffffffffffffffffffffffffffffff16815260200190815260200160002080548060200260200160405190810160405280929190818152602001828054801561239257602002820191906000526020600020905b81548152602001906001019080831161237e575b50505050509050600080600090505b8251811015612571578373ffffffffffffffffffffffffffffffffffffffff1660058483815181106123fc577f4e487b7100000000000000000000000000000000000000000000000000000000600052603260045260246000fd5b60200260200101518154811061243b577f4e487b7100000000000000000000000000000000000000000000000000000000600052603260045260246000fd5b906000526020600020906003020160000160009054906101000a900473ffffffffffffffffffffffffffffffffffffffff1673ffffffffffffffffffffffffffffffffffffffff16141561255e574260058483815181106124c5577f4e487b7100000000000000000000000000000000000000000000000000000000600052603260045260246000fd5b602002602001015181548110612504577f4e487b7100000000000000000000000000000000000000000000000000000000600052603260045260246000fd5b90600052602060002090600302016002015410915081612559576040517f08c379a000000000000000000000000000000000000000000000000000000000815260040161255090613663565b60405180910390fd5b612571565b808061256990613b30565b9150506123a1565b3073ffffffffffffffffffffffffffffffffffffffff166108fc349081150290604051600060405180830381858888f193505050501580156125b7573d6000803e3d6000fd5b50600062015180600460008773ffffffffffffffffffffffffffffffffffffffff1673ffffffffffffffffffffffffffffffffffffffff1681526020019081526020016000206003015461260b919061399e565b426126169190613917565b905082156127435742600585848151811061265a577f4e487b7100000000000000000000000000000000000000000000000000000000600052603260045260246000fd5b602002602001015181548110612699577f4e487b7100000000000000000000000000000000000000000000000000000000600052603260045260246000fd5b9060005260206000209060030201600101819055508060058584815181106126ea577f4e487b7100000000000000000000000000000000000000000000000000000000600052603260045260246000fd5b602002602001015181548110612729577f4e487b7100000000000000000000000000000000000000000000000000000000600052603260045260246000fd5b906000526020600020906003020160020181905550612874565b600560405180606001604052808773ffffffffffffffffffffffffffffffffffffffff16815260200142815260200183815250908060018154018082558091505060019003906000526020600020906003020160009091909190915060008201518160000160006101000a81548173ffffffffffffffffffffffffffffffffffffffff021916908373ffffffffffffffffffffffffffffffffffffffff16021790555060208201518160010155604082015181600201555050600660003373ffffffffffffffffffffffffffffffffffffffff1673ffffffffffffffffffffffffffffffffffffffff168152602001908152602001600020600160058054905061284d91906139f8565b90806001815401808255809150506001900390600052602060002001600090919091909150555b6000606460008054906101000a900460ff1660ff1634612894919061399e565b61289e919061396d565b905080600460008873ffffffffffffffffffffffffffffffffffffffff1673ffffffffffffffffffffffffffffffffffffffff168152602001908152602001600020600401546128ee91906139f8565b600460008873ffffffffffffffffffffffffffffffffffffffff1673ffffffffffffffffffffffffffffffffffffffff168152602001908152602001600020600201600082825461293f9190613917565b9250508190555080600160008282546129589190613917565b925050819055507f51bb78b71c6aba7c377de6374e250ff83d59fc71c6a8b28f3aaac77c33b6dceb33874285600460008c73ffffffffffffffffffffffffffffffffffffffff1673ffffffffffffffffffffffffffffffffffffffff168152602001908152602001600020600401546040516129d8959493929190613426565b60405180910390a17fc5a2b7ad6439179b1edea47d8a4bc00b2c5270a1c741c00fab7be4012caa7d0a3382604051612a119291906134a9565b60405180910390a1505050505050565b60015481565b60008054906101000a900460ff1681565b828054612a4490613acd565b90600052602060002090601f016020900481019282612a665760008555612aad565b82601f10612a7f57805160ff1916838001178555612aad565b82800160010185558215612aad579182015b82811115612aac578251825591602001919060010190612a91565b5b509050612aba9190612b36565b5090565b6040518060600160405280600073ffffffffffffffffffffffffffffffffffffffff16815260200160008152602001600081525090565b6040518060e0016040528060608152602001606081526020016000815260200160008152602001600081526020016000151581526020016000151581525090565b5b80821115612b4f576000816000905550600101612b37565b5090565b6000612b66612b6184613860565b61383b565b905082815260208101848484011115612b7e57600080fd5b612b89848285613a8b565b509392505050565b600081359050612ba081613fe6565b92915050565b600081359050612bb581613ffd565b92915050565b600082601f830112612bcc57600080fd5b8135612bdc848260208601612b53565b91505092915050565b600081359050612bf481614014565b92915050565b600081359050612c098161402b565b92915050565b600060208284031215612c2157600080fd5b6000612c2f84828501612b91565b91505092915050565b60008060408385031215612c4b57600080fd5b6000612c5985828601612b91565b9250506020612c6a85828601612be5565b9150509250929050565b60008060008060808587031215612c8a57600080fd5b600085013567ffffffffffffffff811115612ca457600080fd5b612cb087828801612bbb565b945050602085013567ffffffffffffffff811115612ccd57600080fd5b612cd987828801612bbb565b9350506040612cea87828801612be5565b9250506060612cfb87828801612ba6565b91505092959194509250565b60008060008060808587031215612d1d57600080fd5b600085013567ffffffffffffffff811115612d3757600080fd5b612d4387828801612bbb565b945050602085013567ffffffffffffffff811115612d6057600080fd5b612d6c87828801612bbb565b9350506040612d7d87828801612be5565b9250506060612d8e87828801612be5565b91505092959194509250565b600060208284031215612dac57600080fd5b6000612dba84828501612be5565b91505092915050565b600060208284031215612dd557600080fd5b6000612de384828501612bfa565b91505092915050565b6000612df88383613359565b60608301905092915050565b612e0d81613a2c565b82525050565b612e1c81613a2c565b82525050565b6000612e2d826138b6565b612e3781856138d9565b9350612e4283613891565b8060005b83811015612e73578151612e5a8882612dec565b9750612e65836138cc565b925050600181019050612e46565b5085935050505092915050565b612e8981613a3e565b82525050565b612e9881613a3e565b82525050565b6000612ea9826138c1565b612eb381856138ea565b9350612ec3818560208601613a9a565b612ecc81613c35565b840191505092915050565b6000612ee2826138c1565b612eec81856138fb565b9350612efc818560208601613a9a565b612f0581613c35565b840191505092915050565b6000612f1b826138c1565b612f25818561390c565b9350612f35818560208601613a9a565b80840191505092915050565b60008154612f4e81613acd565b612f5881866138fb565b94506001821660008114612f735760018114612f8557612fb8565b60ff1983168652602086019350612fb8565b612f8e856138a1565b60005b83811015612fb057815481890152600182019150602081019050612f91565b808801955050505b50505092915050565b60008154612fce81613acd565b612fd8818661390c565b94506001821660008114612ff3576001811461300457613037565b60ff19831686528186019350613037565b61300d856138a1565b60005b8381101561302f57815481890152600182019150602081019050613010565b838801955050505b50505092915050565b600061304d601c836138fb565b915061305882613c46565b602082019050919050565b6000613070602b836138fb565b915061307b82613c6f565b604082019050919050565b6000613093601e836138fb565b915061309e82613cbe565b602082019050919050565b60006130b66024836138fb565b91506130c182613ce7565b604082019050919050565b60006130d96016836138fb565b91506130e482613d36565b602082019050919050565b60006130fc6022836138fb565b915061310782613d5f565b604082019050919050565b600061311f6012836138fb565b915061312a82613dae565b602082019050919050565b60006131426023836138fb565b915061314d82613dd7565b604082019050919050565b6000613165600b836138fb565b915061317082613e26565b602082019050919050565b6000613188600d836138fb565b915061319382613e4f565b602082019050919050565b60006131ab6017836138fb565b91506131b682613e78565b602082019050919050565b60006131ce6015836138fb565b91506131d982613ea1565b602082019050919050565b60006131f16024836138fb565b91506131fc82613eca565b604082019050919050565b60006132146014836138fb565b915061321f82613f19565b602082019050919050565b600061323760008361390c565b915061324282613f42565b600082019050919050565b600061325a600f836138fb565b915061326582613f45565b602082019050919050565b600061327d6021836138fb565b915061328882613f6e565b604082019050919050565b60006132a0600f836138fb565b91506132ab82613fbd565b602082019050919050565b600060e08301600083015184820360008601526132d38282612e9e565b915050602083015184820360208601526132ed8282612e9e565b9150506040830151613302604086018261339b565b506060830151613315606086018261339b565b506080830151613328608086018261339b565b5060a083015161333b60a0860182612e80565b5060c083015161334e60c0860182612e80565b508091505092915050565b60608201600082015161336f6000850182612e04565b506020820151613382602085018261339b565b506040820151613395604085018261339b565b50505050565b6133a481613a74565b82525050565b6133b381613a74565b82525050565b6133c281613a7e565b82525050565b60006133d48284612f10565b915081905092915050565b60006133eb8284612fc1565b915081905092915050565b60006134018261322a565b9150819050919050565b60006020820190506134206000830184612e13565b92915050565b600060a08201905061343b6000830188612e13565b6134486020830187612e13565b61345560408301866133aa565b61346260608301856133aa565b61346f60808301846133aa565b9695505050505050565b600060408201905061348e6000830185612e13565b81810360208301526134a08184612f41565b90509392505050565b60006040820190506134be6000830185612e13565b6134cb60208301846133aa565b9392505050565b60006060820190506134e76000830186612e13565b6134f460208301856133aa565b61350160408301846133aa565b949350505050565b600060208201905081810360008301526135238184612e22565b905092915050565b60006020820190506135406000830184612e8f565b92915050565b600060e0820190508181036000830152613560818a612ed7565b905081810360208301526135748189612ed7565b905061358360408301886133aa565b61359060608301876133aa565b61359d60808301866133aa565b6135aa60a0830185612e8f565b6135b760c0830184612e8f565b98975050505050505050565b600060208201905081810360008301526135dc81613040565b9050919050565b600060208201905081810360008301526135fc81613063565b9050919050565b6000602082019050818103600083015261361c81613086565b9050919050565b6000602082019050818103600083015261363c816130a9565b9050919050565b6000602082019050818103600083015261365c816130cc565b9050919050565b6000602082019050818103600083015261367c816130ef565b9050919050565b6000602082019050818103600083015261369c81613112565b9050919050565b600060208201905081810360008301526136bc81613135565b9050919050565b600060208201905081810360008301526136dc81613158565b9050919050565b600060208201905081810360008301526136fc8161317b565b9050919050565b6000602082019050818103600083015261371c8161319e565b9050919050565b6000602082019050818103600083015261373c816131c1565b9050919050565b6000602082019050818103600083015261375c816131e4565b9050919050565b6000602082019050818103600083015261377c81613207565b9050919050565b6000602082019050818103600083015261379c8161324d565b9050919050565b600060208201905081810360008301526137bc81613270565b9050919050565b600060208201905081810360008301526137dc81613293565b9050919050565b600060208201905081810360008301526137fd81846132b6565b905092915050565b600060208201905061381a60008301846133aa565b92915050565b600060208201905061383560008301846133b9565b92915050565b6000613845613856565b90506138518282613aff565b919050565b6000604051905090565b600067ffffffffffffffff82111561387b5761387a613c06565b5b61388482613c35565b9050602081019050919050565b6000819050602082019050919050565b60008190508160005260206000209050919050565b600081519050919050565b600081519050919050565b6000602082019050919050565b600082825260208201905092915050565b600082825260208201905092915050565b600082825260208201905092915050565b600081905092915050565b600061392282613a74565b915061392d83613a74565b9250827fffffffffffffffffffffffffffffffffffffffffffffffffffffffffffffffff0382111561396257613961613b79565b5b828201905092915050565b600061397882613a74565b915061398383613a74565b92508261399357613992613ba8565b5b828204905092915050565b60006139a982613a74565b91506139b483613a74565b9250817fffffffffffffffffffffffffffffffffffffffffffffffffffffffffffffffff04831182151516156139ed576139ec613b79565b5b828202905092915050565b6000613a0382613a74565b9150613a0e83613a74565b925082821015613a2157613a20613b79565b5b828203905092915050565b6000613a3782613a54565b9050919050565b60008115159050919050565b6000819050919050565b600073ffffffffffffffffffffffffffffffffffffffff82169050919050565b6000819050919050565b600060ff82169050919050565b82818337600083830152505050565b60005b83811015613ab8578082015181840152602081019050613a9d565b83811115613ac7576000848401525b50505050565b60006002820490506001821680613ae557607f821691505b60208210811415613af957613af8613bd7565b5b50919050565b613b0882613c35565b810181811067ffffffffffffffff82111715613b2757613b26613c06565b5b80604052505050565b6000613b3b82613a74565b91507fffffffffffffffffffffffffffffffffffffffffffffffffffffffffffffffff821415613b6e57613b6d613b79565b5b600182019050919050565b7f4e487b7100000000000000000000000000000000000000000000000000000000600052601160045260246000fd5b7f4e487b7100000000000000000000000000000000000000000000000000000000600052601260045260246000fd5b7f4e487b7100000000000000000000000000000000000000000000000000000000600052602260045260246000fd5b7f4e487b7100000000000000000000000000000000000000000000000000000000600052604160045260246000fd5b6000601f19601f8301169050919050565b7f596f75722063726561746f7220646f6573206e6f742065786973747300000000600082015250565b7f596f75722063726561746f72206163636f756e7420697320616c72656164792060008201527f6465616374697661746564000000000000000000000000000000000000000000602082015250565b7f43726561746f72206163636f756e742069732064656163746976617465640000600082015250565b7f596f75722063726561746f72206163636f756e7420646f6573206e6f7420657860008201527f6973747300000000000000000000000000000000000000000000000000000000602082015250565b7f43726561746f7220616c72656164792065786973747300000000000000000000600082015250565b7f416c7265616479207375627363726962656420746f207468697320637265617460008201527f6f72000000000000000000000000000000000000000000000000000000000000602082015250565b7f496e73756666696369656e742066756e64730000000000000000000000000000600082015250565b7f596f75722063726561746f72206163636f756e7420697320646561637469766160008201527f7465640000000000000000000000000000000000000000000000000000000000602082015250565b7f416c726561647920736574000000000000000000000000000000000000000000600082015250565b7f4d6f7265207468616e2035302500000000000000000000000000000000000000600082015250565b7f43726561746f7220646f6573206e6f7420657869737473000000000000000000600082015250565b7f53656e6420537562736372697074696f6e206665650000000000000000000000600082015250565b7f4e6f206e65656420746f2073756273637269626520746f206f776e20636f6e7460008201527f656e742100000000000000000000000000000000000000000000000000000000602082015250565b7f496e73756666696369656e742042616c616e6365000000000000000000000000600082015250565b50565b7f4e6f7468696e6720757064617465640000000000000000000000000000000000600082015250565b7f796f7572206163636f756e7420697320416c726561647920616374697661746560008201527f6400000000000000000000000000000000000000000000000000000000000000602082015250565b7f5769746864726177204c6f636b65640000000000000000000000000000000000600082015250565b613fef81613a2c565b8114613ffa57600080fd5b50565b61400681613a4a565b811461401157600080fd5b50565b61401d81613a74565b811461402857600080fd5b50565b61403481613a7e565b811461403f57600080fd5b5056fea264697066735822122067bd3cd0a24fa54f04a86836a3e7100564d1dd140d37ea34ad80c28defadd4c064736f6c63430008040033",
  "linkReferences": {},
  "deployedLinkReferences": {}
}